{
	"contracts/Client.sol": {
		"Client": {
			"abi": [
				{
					"inputs": [
						{
							"internalType": "string",
							"name": "_last_name",
							"type": "string"
						},
						{
							"internalType": "string",
							"name": "_home_address",
							"type": "string"
						},
						{
							"internalType": "uint256",
							"name": "_dni",
							"type": "uint256"
						},
						{
							"internalType": "string",
							"name": "_name",
							"type": "string"
						},
						{
							"internalType": "uint256",
							"name": "_phone_number",
							"type": "uint256"
						}
					],
					"stateMutability": "nonpayable",
					"type": "constructor"
				},
				{
					"inputs": [],
					"name": "user",
					"outputs": [
						{
							"internalType": "string",
							"name": "last_name",
							"type": "string"
						},
						{
							"internalType": "string",
							"name": "home_address",
							"type": "string"
						},
						{
							"internalType": "uint256",
							"name": "dni",
							"type": "uint256"
						},
						{
							"internalType": "string",
							"name": "name",
							"type": "string"
						},
						{
							"internalType": "uint256",
							"name": "phone_number",
							"type": "uint256"
						},
						{
							"internalType": "address",
							"name": "owner",
							"type": "address"
						}
					],
					"stateMutability": "view",
					"type": "function"
				}
			],
			"devdoc": {
				"kind": "dev",
				"methods": {},
				"version": 1
			},
			"evm": {
				"assembly": "    /* \"contracts/Client.sol\":60:1688  contract Client{... */\n  mstore(0x40, 0x80)\n    /* \"contracts/Client.sol\":297:508  constructor(string memory _last_name,string memory _home_address,uint256 _dni, string memory _name,uint256 _phone_number){... */\n  callvalue\n  dup1\n  iszero\n  tag_1\n  jumpi\n  0x00\n  dup1\n  revert\ntag_1:\n  pop\n  mload(0x40)\n  sub(codesize, bytecodeSize)\n  dup1\n  bytecodeSize\n  dup4\n  codecopy\n  dup2\n  dup2\n  add\n  0x40\n  mstore\n  dup2\n  add\n  swap1\n  tag_2\n  swap2\n  swap1\n  tag_3\n  jump\t// in\ntag_2:\n    /* \"contracts/Client.sol\":434:500  User(_last_name,_home_address,_dni,_name,_phone_number,msg.sender) */\n  mload(0x40)\n  dup1\n  0xc0\n  add\n  0x40\n  mstore\n  dup1\n    /* \"contracts/Client.sol\":439:449  _last_name */\n  dup7\n    /* \"contracts/Client.sol\":434:500  User(_last_name,_home_address,_dni,_name,_phone_number,msg.sender) */\n  dup2\n  mstore\n  0x20\n  add\n    /* \"contracts/Client.sol\":450:463  _home_address */\n  dup6\n    /* \"contracts/Client.sol\":434:500  User(_last_name,_home_address,_dni,_name,_phone_number,msg.sender) */\n  dup2\n  mstore\n  0x20\n  add\n    /* \"contracts/Client.sol\":464:468  _dni */\n  dup5\n    /* \"contracts/Client.sol\":434:500  User(_last_name,_home_address,_dni,_name,_phone_number,msg.sender) */\n  dup2\n  mstore\n  0x20\n  add\n    /* \"contracts/Client.sol\":469:474  _name */\n  dup4\n    /* \"contracts/Client.sol\":434:500  User(_last_name,_home_address,_dni,_name,_phone_number,msg.sender) */\n  dup2\n  mstore\n  0x20\n  add\n    /* \"contracts/Client.sol\":475:488  _phone_number */\n  dup3\n    /* \"contracts/Client.sol\":434:500  User(_last_name,_home_address,_dni,_name,_phone_number,msg.sender) */\n  dup2\n  mstore\n  0x20\n  add\n    /* \"contracts/Client.sol\":489:499  msg.sender */\n  caller\n    /* \"contracts/Client.sol\":434:500  User(_last_name,_home_address,_dni,_name,_phone_number,msg.sender) */\n  0xffffffffffffffffffffffffffffffffffffffff\n  and\n  dup2\n  mstore\n  pop\n    /* \"contracts/Client.sol\":429:433  user */\n  0x00\n    /* \"contracts/Client.sol\":429:500  user=User(_last_name,_home_address,_dni,_name,_phone_number,msg.sender) */\n  dup1\n  dup3\n  add\n  mload\n  dup2\n  0x00\n  add\n  swap1\n  dup2\n  tag_6\n  swap2\n  swap1\n  tag_7\n  jump\t// in\ntag_6:\n  pop\n  0x20\n  dup3\n  add\n  mload\n  dup2\n  0x01\n  add\n  swap1\n  dup2\n  tag_8\n  swap2\n  swap1\n  tag_7\n  jump\t// in\ntag_8:\n  pop\n  0x40\n  dup3\n  add\n  mload\n  dup2\n  0x02\n  add\n  sstore\n  0x60\n  dup3\n  add\n  mload\n  dup2\n  0x03\n  add\n  swap1\n  dup2\n  tag_9\n  swap2\n  swap1\n  tag_7\n  jump\t// in\ntag_9:\n  pop\n  0x80\n  dup3\n  add\n  mload\n  dup2\n  0x04\n  add\n  sstore\n  0xa0\n  dup3\n  add\n  mload\n  dup2\n  0x05\n  add\n  exp(0x0100, 0x00)\n  dup2\n  sload\n  dup2\n  0xffffffffffffffffffffffffffffffffffffffff\n  mul\n  not\n  and\n  swap1\n  dup4\n  0xffffffffffffffffffffffffffffffffffffffff\n  and\n  mul\n  or\n  swap1\n  sstore\n  pop\n  swap1\n  pop\n  pop\n    /* \"contracts/Client.sol\":297:508  constructor(string memory _last_name,string memory _home_address,uint256 _dni, string memory _name,uint256 _phone_number){... */\n  pop\n  pop\n  pop\n  pop\n  pop\n    /* \"contracts/Client.sol\":60:1688  contract Client{... */\n  jump(tag_10)\n    /* \"#utility.yul\":7:82   */\ntag_11:\n    /* \"#utility.yul\":40:46   */\n  0x00\n    /* \"#utility.yul\":73:75   */\n  0x40\n    /* \"#utility.yul\":67:76   */\n  mload\n    /* \"#utility.yul\":57:76   */\n  swap1\n  pop\n    /* \"#utility.yul\":7:82   */\n  swap1\n  jump\t// out\n    /* \"#utility.yul\":88:205   */\ntag_12:\n    /* \"#utility.yul\":197:198   */\n  0x00\n    /* \"#utility.yul\":194:195   */\n  dup1\n    /* \"#utility.yul\":187:199   */\n  revert\n    /* \"#utility.yul\":211:328   */\ntag_13:\n    /* \"#utility.yul\":320:321   */\n  0x00\n    /* \"#utility.yul\":317:318   */\n  dup1\n    /* \"#utility.yul\":310:322   */\n  revert\n    /* \"#utility.yul\":334:451   */\ntag_14:\n    /* \"#utility.yul\":443:444   */\n  0x00\n    /* \"#utility.yul\":440:441   */\n  dup1\n    /* \"#utility.yul\":433:445   */\n  revert\n    /* \"#utility.yul\":457:574   */\ntag_15:\n    /* \"#utility.yul\":566:567   */\n  0x00\n    /* \"#utility.yul\":563:564   */\n  dup1\n    /* \"#utility.yul\":556:568   */\n  revert\n    /* \"#utility.yul\":580:682   */\ntag_16:\n    /* \"#utility.yul\":621:627   */\n  0x00\n    /* \"#utility.yul\":672:674   */\n  0x1f\n    /* \"#utility.yul\":668:675   */\n  not\n    /* \"#utility.yul\":663:665   */\n  0x1f\n    /* \"#utility.yul\":656:661   */\n  dup4\n    /* \"#utility.yul\":652:666   */\n  add\n    /* \"#utility.yul\":648:676   */\n  and\n    /* \"#utility.yul\":638:676   */\n  swap1\n  pop\n    /* \"#utility.yul\":580:682   */\n  swap2\n  swap1\n  pop\n  jump\t// out\n    /* \"#utility.yul\":688:868   */\ntag_17:\n    /* \"#utility.yul\":736:813   */\n  0x4e487b7100000000000000000000000000000000000000000000000000000000\n    /* \"#utility.yul\":733:734   */\n  0x00\n    /* \"#utility.yul\":726:814   */\n  mstore\n    /* \"#utility.yul\":833:837   */\n  0x41\n    /* \"#utility.yul\":830:831   */\n  0x04\n    /* \"#utility.yul\":823:838   */\n  mstore\n    /* \"#utility.yul\":857:861   */\n  0x24\n    /* \"#utility.yul\":854:855   */\n  0x00\n    /* \"#utility.yul\":847:862   */\n  revert\n    /* \"#utility.yul\":874:1155   */\ntag_18:\n    /* \"#utility.yul\":957:984   */\n  tag_54\n    /* \"#utility.yul\":979:983   */\n  dup3\n    /* \"#utility.yul\":957:984   */\n  tag_16\n  jump\t// in\ntag_54:\n    /* \"#utility.yul\":949:955   */\n  dup2\n    /* \"#utility.yul\":945:985   */\n  add\n    /* \"#utility.yul\":1087:1093   */\n  dup2\n    /* \"#utility.yul\":1075:1085   */\n  dup2\n    /* \"#utility.yul\":1072:1094   */\n  lt\n    /* \"#utility.yul\":1051:1069   */\n  0xffffffffffffffff\n    /* \"#utility.yul\":1039:1049   */\n  dup3\n    /* \"#utility.yul\":1036:1070   */\n  gt\n    /* \"#utility.yul\":1033:1095   */\n  or\n    /* \"#utility.yul\":1030:1118   */\n  iszero\n  tag_55\n  jumpi\n    /* \"#utility.yul\":1098:1116   */\n  tag_56\n  tag_17\n  jump\t// in\ntag_56:\n    /* \"#utility.yul\":1030:1118   */\ntag_55:\n    /* \"#utility.yul\":1138:1148   */\n  dup1\n    /* \"#utility.yul\":1134:1136   */\n  0x40\n    /* \"#utility.yul\":1127:1149   */\n  mstore\n    /* \"#utility.yul\":917:1155   */\n  pop\n    /* \"#utility.yul\":874:1155   */\n  pop\n  pop\n  jump\t// out\n    /* \"#utility.yul\":1161:1290   */\ntag_19:\n    /* \"#utility.yul\":1195:1201   */\n  0x00\n    /* \"#utility.yul\":1222:1242   */\n  tag_58\n  tag_11\n  jump\t// in\ntag_58:\n    /* \"#utility.yul\":1212:1242   */\n  swap1\n  pop\n    /* \"#utility.yul\":1251:1284   */\n  tag_59\n    /* \"#utility.yul\":1279:1283   */\n  dup3\n    /* \"#utility.yul\":1271:1277   */\n  dup3\n    /* \"#utility.yul\":1251:1284   */\n  tag_18\n  jump\t// in\ntag_59:\n    /* \"#utility.yul\":1161:1290   */\n  swap2\n  swap1\n  pop\n  jump\t// out\n    /* \"#utility.yul\":1296:1604   */\ntag_20:\n    /* \"#utility.yul\":1358:1362   */\n  0x00\n    /* \"#utility.yul\":1448:1466   */\n  0xffffffffffffffff\n    /* \"#utility.yul\":1440:1446   */\n  dup3\n    /* \"#utility.yul\":1437:1467   */\n  gt\n    /* \"#utility.yul\":1434:1490   */\n  iszero\n  tag_61\n  jumpi\n    /* \"#utility.yul\":1470:1488   */\n  tag_62\n  tag_17\n  jump\t// in\ntag_62:\n    /* \"#utility.yul\":1434:1490   */\ntag_61:\n    /* \"#utility.yul\":1508:1537   */\n  tag_63\n    /* \"#utility.yul\":1530:1536   */\n  dup3\n    /* \"#utility.yul\":1508:1537   */\n  tag_16\n  jump\t// in\ntag_63:\n    /* \"#utility.yul\":1500:1537   */\n  swap1\n  pop\n    /* \"#utility.yul\":1592:1596   */\n  0x20\n    /* \"#utility.yul\":1586:1590   */\n  dup2\n    /* \"#utility.yul\":1582:1597   */\n  add\n    /* \"#utility.yul\":1574:1597   */\n  swap1\n  pop\n    /* \"#utility.yul\":1296:1604   */\n  swap2\n  swap1\n  pop\n  jump\t// out\n    /* \"#utility.yul\":1610:1856   */\ntag_21:\n    /* \"#utility.yul\":1691:1692   */\n  0x00\n    /* \"#utility.yul\":1701:1814   */\ntag_65:\n    /* \"#utility.yul\":1715:1721   */\n  dup4\n    /* \"#utility.yul\":1712:1713   */\n  dup2\n    /* \"#utility.yul\":1709:1722   */\n  lt\n    /* \"#utility.yul\":1701:1814   */\n  iszero\n  tag_67\n  jumpi\n    /* \"#utility.yul\":1800:1801   */\n  dup1\n    /* \"#utility.yul\":1795:1798   */\n  dup3\n    /* \"#utility.yul\":1791:1802   */\n  add\n    /* \"#utility.yul\":1785:1803   */\n  mload\n    /* \"#utility.yul\":1781:1782   */\n  dup2\n    /* \"#utility.yul\":1776:1779   */\n  dup5\n    /* \"#utility.yul\":1772:1783   */\n  add\n    /* \"#utility.yul\":1765:1804   */\n  mstore\n    /* \"#utility.yul\":1737:1739   */\n  0x20\n    /* \"#utility.yul\":1734:1735   */\n  dup2\n    /* \"#utility.yul\":1730:1740   */\n  add\n    /* \"#utility.yul\":1725:1740   */\n  swap1\n  pop\n    /* \"#utility.yul\":1701:1814   */\n  jump(tag_65)\ntag_67:\n    /* \"#utility.yul\":1848:1849   */\n  0x00\n    /* \"#utility.yul\":1839:1845   */\n  dup5\n    /* \"#utility.yul\":1834:1837   */\n  dup5\n    /* \"#utility.yul\":1830:1846   */\n  add\n    /* \"#utility.yul\":1823:1850   */\n  mstore\n    /* \"#utility.yul\":1672:1856   */\n  pop\n    /* \"#utility.yul\":1610:1856   */\n  pop\n  pop\n  pop\n  jump\t// out\n    /* \"#utility.yul\":1862:2296   */\ntag_22:\n    /* \"#utility.yul\":1951:1956   */\n  0x00\n    /* \"#utility.yul\":1976:2042   */\n  tag_69\n    /* \"#utility.yul\":1992:2041   */\n  tag_70\n    /* \"#utility.yul\":2034:2040   */\n  dup5\n    /* \"#utility.yul\":1992:2041   */\n  tag_20\n  jump\t// in\ntag_70:\n    /* \"#utility.yul\":1976:2042   */\n  tag_19\n  jump\t// in\ntag_69:\n    /* \"#utility.yul\":1967:2042   */\n  swap1\n  pop\n    /* \"#utility.yul\":2065:2071   */\n  dup3\n    /* \"#utility.yul\":2058:2063   */\n  dup2\n    /* \"#utility.yul\":2051:2072   */\n  mstore\n    /* \"#utility.yul\":2103:2107   */\n  0x20\n    /* \"#utility.yul\":2096:2101   */\n  dup2\n    /* \"#utility.yul\":2092:2108   */\n  add\n    /* \"#utility.yul\":2141:2144   */\n  dup5\n    /* \"#utility.yul\":2132:2138   */\n  dup5\n    /* \"#utility.yul\":2127:2130   */\n  dup5\n    /* \"#utility.yul\":2123:2139   */\n  add\n    /* \"#utility.yul\":2120:2145   */\n  gt\n    /* \"#utility.yul\":2117:2229   */\n  iszero\n  tag_71\n  jumpi\n    /* \"#utility.yul\":2148:2227   */\n  tag_72\n  tag_15\n  jump\t// in\ntag_72:\n    /* \"#utility.yul\":2117:2229   */\ntag_71:\n    /* \"#utility.yul\":2238:2290   */\n  tag_73\n    /* \"#utility.yul\":2283:2289   */\n  dup5\n    /* \"#utility.yul\":2278:2281   */\n  dup3\n    /* \"#utility.yul\":2273:2276   */\n  dup6\n    /* \"#utility.yul\":2238:2290   */\n  tag_21\n  jump\t// in\ntag_73:\n    /* \"#utility.yul\":1957:2296   */\n  pop\n    /* \"#utility.yul\":1862:2296   */\n  swap4\n  swap3\n  pop\n  pop\n  pop\n  jump\t// out\n    /* \"#utility.yul\":2316:2671   */\ntag_23:\n    /* \"#utility.yul\":2383:2388   */\n  0x00\n    /* \"#utility.yul\":2432:2435   */\n  dup3\n    /* \"#utility.yul\":2425:2429   */\n  0x1f\n    /* \"#utility.yul\":2417:2423   */\n  dup4\n    /* \"#utility.yul\":2413:2430   */\n  add\n    /* \"#utility.yul\":2409:2436   */\n  slt\n    /* \"#utility.yul\":2399:2521   */\n  tag_75\n  jumpi\n    /* \"#utility.yul\":2440:2519   */\n  tag_76\n  tag_14\n  jump\t// in\ntag_76:\n    /* \"#utility.yul\":2399:2521   */\ntag_75:\n    /* \"#utility.yul\":2550:2556   */\n  dup2\n    /* \"#utility.yul\":2544:2557   */\n  mload\n    /* \"#utility.yul\":2575:2665   */\n  tag_77\n    /* \"#utility.yul\":2661:2664   */\n  dup5\n    /* \"#utility.yul\":2653:2659   */\n  dup3\n    /* \"#utility.yul\":2646:2650   */\n  0x20\n    /* \"#utility.yul\":2638:2644   */\n  dup7\n    /* \"#utility.yul\":2634:2651   */\n  add\n    /* \"#utility.yul\":2575:2665   */\n  tag_22\n  jump\t// in\ntag_77:\n    /* \"#utility.yul\":2566:2665   */\n  swap2\n  pop\n    /* \"#utility.yul\":2389:2671   */\n  pop\n    /* \"#utility.yul\":2316:2671   */\n  swap3\n  swap2\n  pop\n  pop\n  jump\t// out\n    /* \"#utility.yul\":2677:2754   */\ntag_24:\n    /* \"#utility.yul\":2714:2721   */\n  0x00\n    /* \"#utility.yul\":2743:2748   */\n  dup2\n    /* \"#utility.yul\":2732:2748   */\n  swap1\n  pop\n    /* \"#utility.yul\":2677:2754   */\n  swap2\n  swap1\n  pop\n  jump\t// out\n    /* \"#utility.yul\":2760:2882   */\ntag_25:\n    /* \"#utility.yul\":2833:2857   */\n  tag_80\n    /* \"#utility.yul\":2851:2856   */\n  dup2\n    /* \"#utility.yul\":2833:2857   */\n  tag_24\n  jump\t// in\ntag_80:\n    /* \"#utility.yul\":2826:2831   */\n  dup2\n    /* \"#utility.yul\":2823:2858   */\n  eq\n    /* \"#utility.yul\":2813:2876   */\n  tag_81\n  jumpi\n    /* \"#utility.yul\":2872:2873   */\n  0x00\n    /* \"#utility.yul\":2869:2870   */\n  dup1\n    /* \"#utility.yul\":2862:2874   */\n  revert\n    /* \"#utility.yul\":2813:2876   */\ntag_81:\n    /* \"#utility.yul\":2760:2882   */\n  pop\n  jump\t// out\n    /* \"#utility.yul\":2888:3031   */\ntag_26:\n    /* \"#utility.yul\":2945:2950   */\n  0x00\n    /* \"#utility.yul\":2976:2982   */\n  dup2\n    /* \"#utility.yul\":2970:2983   */\n  mload\n    /* \"#utility.yul\":2961:2983   */\n  swap1\n  pop\n    /* \"#utility.yul\":2992:3025   */\n  tag_83\n    /* \"#utility.yul\":3019:3024   */\n  dup2\n    /* \"#utility.yul\":2992:3025   */\n  tag_25\n  jump\t// in\ntag_83:\n    /* \"#utility.yul\":2888:3031   */\n  swap3\n  swap2\n  pop\n  pop\n  jump\t// out\n    /* \"#utility.yul\":3037:4533   */\ntag_3:\n    /* \"#utility.yul\":3173:3179   */\n  0x00\n    /* \"#utility.yul\":3181:3187   */\n  dup1\n    /* \"#utility.yul\":3189:3195   */\n  0x00\n    /* \"#utility.yul\":3197:3203   */\n  dup1\n    /* \"#utility.yul\":3205:3211   */\n  0x00\n    /* \"#utility.yul\":3254:3257   */\n  0xa0\n    /* \"#utility.yul\":3242:3251   */\n  dup7\n    /* \"#utility.yul\":3233:3240   */\n  dup9\n    /* \"#utility.yul\":3229:3252   */\n  sub\n    /* \"#utility.yul\":3225:3258   */\n  slt\n    /* \"#utility.yul\":3222:3342   */\n  iszero\n  tag_85\n  jumpi\n    /* \"#utility.yul\":3261:3340   */\n  tag_86\n  tag_12\n  jump\t// in\ntag_86:\n    /* \"#utility.yul\":3222:3342   */\ntag_85:\n    /* \"#utility.yul\":3402:3403   */\n  0x00\n    /* \"#utility.yul\":3391:3400   */\n  dup7\n    /* \"#utility.yul\":3387:3404   */\n  add\n    /* \"#utility.yul\":3381:3405   */\n  mload\n    /* \"#utility.yul\":3432:3450   */\n  0xffffffffffffffff\n    /* \"#utility.yul\":3424:3430   */\n  dup2\n    /* \"#utility.yul\":3421:3451   */\n  gt\n    /* \"#utility.yul\":3418:3535   */\n  iszero\n  tag_87\n  jumpi\n    /* \"#utility.yul\":3454:3533   */\n  tag_88\n  tag_13\n  jump\t// in\ntag_88:\n    /* \"#utility.yul\":3418:3535   */\ntag_87:\n    /* \"#utility.yul\":3559:3633   */\n  tag_89\n    /* \"#utility.yul\":3625:3632   */\n  dup9\n    /* \"#utility.yul\":3616:3622   */\n  dup3\n    /* \"#utility.yul\":3605:3614   */\n  dup10\n    /* \"#utility.yul\":3601:3623   */\n  add\n    /* \"#utility.yul\":3559:3633   */\n  tag_23\n  jump\t// in\ntag_89:\n    /* \"#utility.yul\":3549:3633   */\n  swap6\n  pop\n    /* \"#utility.yul\":3352:3643   */\n  pop\n    /* \"#utility.yul\":3703:3705   */\n  0x20\n    /* \"#utility.yul\":3692:3701   */\n  dup7\n    /* \"#utility.yul\":3688:3706   */\n  add\n    /* \"#utility.yul\":3682:3707   */\n  mload\n    /* \"#utility.yul\":3734:3752   */\n  0xffffffffffffffff\n    /* \"#utility.yul\":3726:3732   */\n  dup2\n    /* \"#utility.yul\":3723:3753   */\n  gt\n    /* \"#utility.yul\":3720:3837   */\n  iszero\n  tag_90\n  jumpi\n    /* \"#utility.yul\":3756:3835   */\n  tag_91\n  tag_13\n  jump\t// in\ntag_91:\n    /* \"#utility.yul\":3720:3837   */\ntag_90:\n    /* \"#utility.yul\":3861:3935   */\n  tag_92\n    /* \"#utility.yul\":3927:3934   */\n  dup9\n    /* \"#utility.yul\":3918:3924   */\n  dup3\n    /* \"#utility.yul\":3907:3916   */\n  dup10\n    /* \"#utility.yul\":3903:3925   */\n  add\n    /* \"#utility.yul\":3861:3935   */\n  tag_23\n  jump\t// in\ntag_92:\n    /* \"#utility.yul\":3851:3935   */\n  swap5\n  pop\n    /* \"#utility.yul\":3653:3945   */\n  pop\n    /* \"#utility.yul\":3984:3986   */\n  0x40\n    /* \"#utility.yul\":4010:4074   */\n  tag_93\n    /* \"#utility.yul\":4066:4073   */\n  dup9\n    /* \"#utility.yul\":4057:4063   */\n  dup3\n    /* \"#utility.yul\":4046:4055   */\n  dup10\n    /* \"#utility.yul\":4042:4064   */\n  add\n    /* \"#utility.yul\":4010:4074   */\n  tag_26\n  jump\t// in\ntag_93:\n    /* \"#utility.yul\":4000:4074   */\n  swap4\n  pop\n    /* \"#utility.yul\":3955:4084   */\n  pop\n    /* \"#utility.yul\":4144:4146   */\n  0x60\n    /* \"#utility.yul\":4133:4142   */\n  dup7\n    /* \"#utility.yul\":4129:4147   */\n  add\n    /* \"#utility.yul\":4123:4148   */\n  mload\n    /* \"#utility.yul\":4175:4193   */\n  0xffffffffffffffff\n    /* \"#utility.yul\":4167:4173   */\n  dup2\n    /* \"#utility.yul\":4164:4194   */\n  gt\n    /* \"#utility.yul\":4161:4278   */\n  iszero\n  tag_94\n  jumpi\n    /* \"#utility.yul\":4197:4276   */\n  tag_95\n  tag_13\n  jump\t// in\ntag_95:\n    /* \"#utility.yul\":4161:4278   */\ntag_94:\n    /* \"#utility.yul\":4302:4376   */\n  tag_96\n    /* \"#utility.yul\":4368:4375   */\n  dup9\n    /* \"#utility.yul\":4359:4365   */\n  dup3\n    /* \"#utility.yul\":4348:4357   */\n  dup10\n    /* \"#utility.yul\":4344:4366   */\n  add\n    /* \"#utility.yul\":4302:4376   */\n  tag_23\n  jump\t// in\ntag_96:\n    /* \"#utility.yul\":4292:4376   */\n  swap3\n  pop\n    /* \"#utility.yul\":4094:4386   */\n  pop\n    /* \"#utility.yul\":4425:4428   */\n  0x80\n    /* \"#utility.yul\":4452:4516   */\n  tag_97\n    /* \"#utility.yul\":4508:4515   */\n  dup9\n    /* \"#utility.yul\":4499:4505   */\n  dup3\n    /* \"#utility.yul\":4488:4497   */\n  dup10\n    /* \"#utility.yul\":4484:4506   */\n  add\n    /* \"#utility.yul\":4452:4516   */\n  tag_26\n  jump\t// in\ntag_97:\n    /* \"#utility.yul\":4442:4516   */\n  swap2\n  pop\n    /* \"#utility.yul\":4396:4526   */\n  pop\n    /* \"#utility.yul\":3037:4533   */\n  swap3\n  swap6\n  pop\n  swap3\n  swap6\n  swap1\n  swap4\n  pop\n  jump\t// out\n    /* \"#utility.yul\":4539:4638   */\ntag_27:\n    /* \"#utility.yul\":4591:4597   */\n  0x00\n    /* \"#utility.yul\":4625:4630   */\n  dup2\n    /* \"#utility.yul\":4619:4631   */\n  mload\n    /* \"#utility.yul\":4609:4631   */\n  swap1\n  pop\n    /* \"#utility.yul\":4539:4638   */\n  swap2\n  swap1\n  pop\n  jump\t// out\n    /* \"#utility.yul\":4644:4824   */\ntag_28:\n    /* \"#utility.yul\":4692:4769   */\n  0x4e487b7100000000000000000000000000000000000000000000000000000000\n    /* \"#utility.yul\":4689:4690   */\n  0x00\n    /* \"#utility.yul\":4682:4770   */\n  mstore\n    /* \"#utility.yul\":4789:4793   */\n  0x22\n    /* \"#utility.yul\":4786:4787   */\n  0x04\n    /* \"#utility.yul\":4779:4794   */\n  mstore\n    /* \"#utility.yul\":4813:4817   */\n  0x24\n    /* \"#utility.yul\":4810:4811   */\n  0x00\n    /* \"#utility.yul\":4803:4818   */\n  revert\n    /* \"#utility.yul\":4830:5150   */\ntag_29:\n    /* \"#utility.yul\":4874:4880   */\n  0x00\n    /* \"#utility.yul\":4911:4912   */\n  0x02\n    /* \"#utility.yul\":4905:4909   */\n  dup3\n    /* \"#utility.yul\":4901:4913   */\n  div\n    /* \"#utility.yul\":4891:4913   */\n  swap1\n  pop\n    /* \"#utility.yul\":4958:4959   */\n  0x01\n    /* \"#utility.yul\":4952:4956   */\n  dup3\n    /* \"#utility.yul\":4948:4960   */\n  and\n    /* \"#utility.yul\":4979:4997   */\n  dup1\n    /* \"#utility.yul\":4969:5050   */\n  tag_101\n  jumpi\n    /* \"#utility.yul\":5035:5039   */\n  0x7f\n    /* \"#utility.yul\":5027:5033   */\n  dup3\n    /* \"#utility.yul\":5023:5040   */\n  and\n    /* \"#utility.yul\":5013:5040   */\n  swap2\n  pop\n    /* \"#utility.yul\":4969:5050   */\ntag_101:\n    /* \"#utility.yul\":5097:5099   */\n  0x20\n    /* \"#utility.yul\":5089:5095   */\n  dup3\n    /* \"#utility.yul\":5086:5100   */\n  lt\n    /* \"#utility.yul\":5066:5084   */\n  dup2\n    /* \"#utility.yul\":5063:5101   */\n  sub\n    /* \"#utility.yul\":5060:5144   */\n  tag_102\n  jumpi\n    /* \"#utility.yul\":5116:5134   */\n  tag_103\n  tag_28\n  jump\t// in\ntag_103:\n    /* \"#utility.yul\":5060:5144   */\ntag_102:\n    /* \"#utility.yul\":4881:5150   */\n  pop\n    /* \"#utility.yul\":4830:5150   */\n  swap2\n  swap1\n  pop\n  jump\t// out\n    /* \"#utility.yul\":5156:5297   */\ntag_30:\n    /* \"#utility.yul\":5205:5209   */\n  0x00\n    /* \"#utility.yul\":5228:5231   */\n  dup2\n    /* \"#utility.yul\":5220:5231   */\n  swap1\n  pop\n    /* \"#utility.yul\":5251:5254   */\n  dup2\n    /* \"#utility.yul\":5248:5249   */\n  0x00\n    /* \"#utility.yul\":5241:5255   */\n  mstore\n    /* \"#utility.yul\":5285:5289   */\n  0x20\n    /* \"#utility.yul\":5282:5283   */\n  0x00\n    /* \"#utility.yul\":5272:5290   */\n  keccak256\n    /* \"#utility.yul\":5264:5290   */\n  swap1\n  pop\n    /* \"#utility.yul\":5156:5297   */\n  swap2\n  swap1\n  pop\n  jump\t// out\n    /* \"#utility.yul\":5303:5396   */\ntag_31:\n    /* \"#utility.yul\":5340:5346   */\n  0x00\n    /* \"#utility.yul\":5387:5389   */\n  0x20\n    /* \"#utility.yul\":5382:5384   */\n  0x1f\n    /* \"#utility.yul\":5375:5380   */\n  dup4\n    /* \"#utility.yul\":5371:5385   */\n  add\n    /* \"#utility.yul\":5367:5390   */\n  div\n    /* \"#utility.yul\":5357:5390   */\n  swap1\n  pop\n    /* \"#utility.yul\":5303:5396   */\n  swap2\n  swap1\n  pop\n  jump\t// out\n    /* \"#utility.yul\":5402:5509   */\ntag_32:\n    /* \"#utility.yul\":5446:5454   */\n  0x00\n    /* \"#utility.yul\":5496:5501   */\n  dup3\n    /* \"#utility.yul\":5490:5494   */\n  dup3\n    /* \"#utility.yul\":5486:5502   */\n  shl\n    /* \"#utility.yul\":5465:5502   */\n  swap1\n  pop\n    /* \"#utility.yul\":5402:5509   */\n  swap3\n  swap2\n  pop\n  pop\n  jump\t// out\n    /* \"#utility.yul\":5515:5908   */\ntag_33:\n    /* \"#utility.yul\":5584:5590   */\n  0x00\n    /* \"#utility.yul\":5634:5635   */\n  0x08\n    /* \"#utility.yul\":5622:5632   */\n  dup4\n    /* \"#utility.yul\":5618:5636   */\n  mul\n    /* \"#utility.yul\":5657:5754   */\n  tag_108\n    /* \"#utility.yul\":5687:5753   */\n  0xffffffffffffffffffffffffffffffffffffffffffffffffffffffffffffffff\n    /* \"#utility.yul\":5676:5685   */\n  dup3\n    /* \"#utility.yul\":5657:5754   */\n  tag_32\n  jump\t// in\ntag_108:\n    /* \"#utility.yul\":5775:5814   */\n  tag_109\n    /* \"#utility.yul\":5805:5813   */\n  dup7\n    /* \"#utility.yul\":5794:5803   */\n  dup4\n    /* \"#utility.yul\":5775:5814   */\n  tag_32\n  jump\t// in\ntag_109:\n    /* \"#utility.yul\":5763:5814   */\n  swap6\n  pop\n    /* \"#utility.yul\":5847:5851   */\n  dup1\n    /* \"#utility.yul\":5843:5852   */\n  not\n    /* \"#utility.yul\":5836:5841   */\n  dup5\n    /* \"#utility.yul\":5832:5853   */\n  and\n    /* \"#utility.yul\":5823:5853   */\n  swap4\n  pop\n    /* \"#utility.yul\":5896:5900   */\n  dup1\n    /* \"#utility.yul\":5886:5894   */\n  dup7\n    /* \"#utility.yul\":5882:5901   */\n  and\n    /* \"#utility.yul\":5875:5880   */\n  dup5\n    /* \"#utility.yul\":5872:5902   */\n  or\n    /* \"#utility.yul\":5862:5902   */\n  swap3\n  pop\n    /* \"#utility.yul\":5591:5908   */\n  pop\n  pop\n    /* \"#utility.yul\":5515:5908   */\n  swap4\n  swap3\n  pop\n  pop\n  pop\n  jump\t// out\n    /* \"#utility.yul\":5914:5974   */\ntag_34:\n    /* \"#utility.yul\":5942:5945   */\n  0x00\n    /* \"#utility.yul\":5963:5968   */\n  dup2\n    /* \"#utility.yul\":5956:5968   */\n  swap1\n  pop\n    /* \"#utility.yul\":5914:5974   */\n  swap2\n  swap1\n  pop\n  jump\t// out\n    /* \"#utility.yul\":5980:6122   */\ntag_35:\n    /* \"#utility.yul\":6030:6039   */\n  0x00\n    /* \"#utility.yul\":6063:6116   */\n  tag_112\n    /* \"#utility.yul\":6081:6115   */\n  tag_113\n    /* \"#utility.yul\":6090:6114   */\n  tag_114\n    /* \"#utility.yul\":6108:6113   */\n  dup5\n    /* \"#utility.yul\":6090:6114   */\n  tag_24\n  jump\t// in\ntag_114:\n    /* \"#utility.yul\":6081:6115   */\n  tag_34\n  jump\t// in\ntag_113:\n    /* \"#utility.yul\":6063:6116   */\n  tag_24\n  jump\t// in\ntag_112:\n    /* \"#utility.yul\":6050:6116   */\n  swap1\n  pop\n    /* \"#utility.yul\":5980:6122   */\n  swap2\n  swap1\n  pop\n  jump\t// out\n    /* \"#utility.yul\":6128:6203   */\ntag_36:\n    /* \"#utility.yul\":6171:6174   */\n  0x00\n    /* \"#utility.yul\":6192:6197   */\n  dup2\n    /* \"#utility.yul\":6185:6197   */\n  swap1\n  pop\n    /* \"#utility.yul\":6128:6203   */\n  swap2\n  swap1\n  pop\n  jump\t// out\n    /* \"#utility.yul\":6209:6478   */\ntag_37:\n    /* \"#utility.yul\":6319:6358   */\n  tag_117\n    /* \"#utility.yul\":6350:6357   */\n  dup4\n    /* \"#utility.yul\":6319:6358   */\n  tag_35\n  jump\t// in\ntag_117:\n    /* \"#utility.yul\":6380:6471   */\n  tag_118\n    /* \"#utility.yul\":6429:6470   */\n  tag_119\n    /* \"#utility.yul\":6453:6469   */\n  dup3\n    /* \"#utility.yul\":6429:6470   */\n  tag_36\n  jump\t// in\ntag_119:\n    /* \"#utility.yul\":6421:6427   */\n  dup5\n    /* \"#utility.yul\":6414:6418   */\n  dup5\n    /* \"#utility.yul\":6408:6419   */\n  sload\n    /* \"#utility.yul\":6380:6471   */\n  tag_33\n  jump\t// in\ntag_118:\n    /* \"#utility.yul\":6374:6378   */\n  dup3\n    /* \"#utility.yul\":6367:6472   */\n  sstore\n    /* \"#utility.yul\":6285:6478   */\n  pop\n    /* \"#utility.yul\":6209:6478   */\n  pop\n  pop\n  pop\n  jump\t// out\n    /* \"#utility.yul\":6484:6557   */\ntag_38:\n    /* \"#utility.yul\":6529:6532   */\n  0x00\n    /* \"#utility.yul\":6484:6557   */\n  swap1\n  jump\t// out\n    /* \"#utility.yul\":6563:6752   */\ntag_39:\n    /* \"#utility.yul\":6640:6672   */\n  tag_122\n  tag_38\n  jump\t// in\ntag_122:\n    /* \"#utility.yul\":6681:6746   */\n  tag_123\n    /* \"#utility.yul\":6739:6745   */\n  dup2\n    /* \"#utility.yul\":6731:6737   */\n  dup5\n    /* \"#utility.yul\":6725:6729   */\n  dup5\n    /* \"#utility.yul\":6681:6746   */\n  tag_37\n  jump\t// in\ntag_123:\n    /* \"#utility.yul\":6616:6752   */\n  pop\n    /* \"#utility.yul\":6563:6752   */\n  pop\n  pop\n  jump\t// out\n    /* \"#utility.yul\":6758:6944   */\ntag_40:\n    /* \"#utility.yul\":6818:6938   */\ntag_125:\n    /* \"#utility.yul\":6835:6838   */\n  dup2\n    /* \"#utility.yul\":6828:6833   */\n  dup2\n    /* \"#utility.yul\":6825:6839   */\n  lt\n    /* \"#utility.yul\":6818:6938   */\n  iszero\n  tag_127\n  jumpi\n    /* \"#utility.yul\":6889:6928   */\n  tag_128\n    /* \"#utility.yul\":6926:6927   */\n  0x00\n    /* \"#utility.yul\":6919:6924   */\n  dup3\n    /* \"#utility.yul\":6889:6928   */\n  tag_39\n  jump\t// in\ntag_128:\n    /* \"#utility.yul\":6862:6863   */\n  0x01\n    /* \"#utility.yul\":6855:6860   */\n  dup2\n    /* \"#utility.yul\":6851:6864   */\n  add\n    /* \"#utility.yul\":6842:6864   */\n  swap1\n  pop\n    /* \"#utility.yul\":6818:6938   */\n  jump(tag_125)\ntag_127:\n    /* \"#utility.yul\":6758:6944   */\n  pop\n  pop\n  jump\t// out\n    /* \"#utility.yul\":6950:7493   */\ntag_41:\n    /* \"#utility.yul\":7051:7053   */\n  0x1f\n    /* \"#utility.yul\":7046:7049   */\n  dup3\n    /* \"#utility.yul\":7043:7054   */\n  gt\n    /* \"#utility.yul\":7040:7486   */\n  iszero\n  tag_130\n  jumpi\n    /* \"#utility.yul\":7085:7123   */\n  tag_131\n    /* \"#utility.yul\":7117:7122   */\n  dup2\n    /* \"#utility.yul\":7085:7123   */\n  tag_30\n  jump\t// in\ntag_131:\n    /* \"#utility.yul\":7169:7198   */\n  tag_132\n    /* \"#utility.yul\":7187:7197   */\n  dup5\n    /* \"#utility.yul\":7169:7198   */\n  tag_31\n  jump\t// in\ntag_132:\n    /* \"#utility.yul\":7159:7167   */\n  dup2\n    /* \"#utility.yul\":7155:7199   */\n  add\n    /* \"#utility.yul\":7352:7354   */\n  0x20\n    /* \"#utility.yul\":7340:7350   */\n  dup6\n    /* \"#utility.yul\":7337:7355   */\n  lt\n    /* \"#utility.yul\":7334:7383   */\n  iszero\n  tag_133\n  jumpi\n    /* \"#utility.yul\":7373:7381   */\n  dup2\n    /* \"#utility.yul\":7358:7381   */\n  swap1\n  pop\n    /* \"#utility.yul\":7334:7383   */\ntag_133:\n    /* \"#utility.yul\":7396:7476   */\n  tag_134\n    /* \"#utility.yul\":7452:7474   */\n  tag_135\n    /* \"#utility.yul\":7470:7473   */\n  dup6\n    /* \"#utility.yul\":7452:7474   */\n  tag_31\n  jump\t// in\ntag_135:\n    /* \"#utility.yul\":7442:7450   */\n  dup4\n    /* \"#utility.yul\":7438:7475   */\n  add\n    /* \"#utility.yul\":7425:7436   */\n  dup3\n    /* \"#utility.yul\":7396:7476   */\n  tag_40\n  jump\t// in\ntag_134:\n    /* \"#utility.yul\":7055:7486   */\n  pop\n  pop\n    /* \"#utility.yul\":7040:7486   */\ntag_130:\n    /* \"#utility.yul\":6950:7493   */\n  pop\n  pop\n  pop\n  jump\t// out\n    /* \"#utility.yul\":7499:7616   */\ntag_42:\n    /* \"#utility.yul\":7553:7561   */\n  0x00\n    /* \"#utility.yul\":7603:7608   */\n  dup3\n    /* \"#utility.yul\":7597:7601   */\n  dup3\n    /* \"#utility.yul\":7593:7609   */\n  shr\n    /* \"#utility.yul\":7572:7609   */\n  swap1\n  pop\n    /* \"#utility.yul\":7499:7616   */\n  swap3\n  swap2\n  pop\n  pop\n  jump\t// out\n    /* \"#utility.yul\":7622:7791   */\ntag_43:\n    /* \"#utility.yul\":7666:7672   */\n  0x00\n    /* \"#utility.yul\":7699:7750   */\n  tag_138\n    /* \"#utility.yul\":7747:7748   */\n  0x00\n    /* \"#utility.yul\":7743:7749   */\n  not\n    /* \"#utility.yul\":7735:7740   */\n  dup5\n    /* \"#utility.yul\":7732:7733   */\n  0x08\n    /* \"#utility.yul\":7728:7741   */\n  mul\n    /* \"#utility.yul\":7699:7750   */\n  tag_42\n  jump\t// in\ntag_138:\n    /* \"#utility.yul\":7695:7751   */\n  not\n    /* \"#utility.yul\":7780:7784   */\n  dup1\n    /* \"#utility.yul\":7774:7778   */\n  dup4\n    /* \"#utility.yul\":7770:7785   */\n  and\n    /* \"#utility.yul\":7760:7785   */\n  swap2\n  pop\n    /* \"#utility.yul\":7673:7791   */\n  pop\n    /* \"#utility.yul\":7622:7791   */\n  swap3\n  swap2\n  pop\n  pop\n  jump\t// out\n    /* \"#utility.yul\":7796:8091   */\ntag_44:\n    /* \"#utility.yul\":7872:7876   */\n  0x00\n    /* \"#utility.yul\":8018:8047   */\n  tag_140\n    /* \"#utility.yul\":8043:8046   */\n  dup4\n    /* \"#utility.yul\":8037:8041   */\n  dup4\n    /* \"#utility.yul\":8018:8047   */\n  tag_43\n  jump\t// in\ntag_140:\n    /* \"#utility.yul\":8010:8047   */\n  swap2\n  pop\n    /* \"#utility.yul\":8080:8083   */\n  dup3\n    /* \"#utility.yul\":8077:8078   */\n  0x02\n    /* \"#utility.yul\":8073:8084   */\n  mul\n    /* \"#utility.yul\":8067:8071   */\n  dup3\n    /* \"#utility.yul\":8064:8085   */\n  or\n    /* \"#utility.yul\":8056:8085   */\n  swap1\n  pop\n    /* \"#utility.yul\":7796:8091   */\n  swap3\n  swap2\n  pop\n  pop\n  jump\t// out\n    /* \"#utility.yul\":8096:9491   */\ntag_7:\n    /* \"#utility.yul\":8213:8250   */\n  tag_142\n    /* \"#utility.yul\":8246:8249   */\n  dup3\n    /* \"#utility.yul\":8213:8250   */\n  tag_27\n  jump\t// in\ntag_142:\n    /* \"#utility.yul\":8315:8333   */\n  0xffffffffffffffff\n    /* \"#utility.yul\":8307:8313   */\n  dup2\n    /* \"#utility.yul\":8304:8334   */\n  gt\n    /* \"#utility.yul\":8301:8357   */\n  iszero\n  tag_143\n  jumpi\n    /* \"#utility.yul\":8337:8355   */\n  tag_144\n  tag_17\n  jump\t// in\ntag_144:\n    /* \"#utility.yul\":8301:8357   */\ntag_143:\n    /* \"#utility.yul\":8381:8419   */\n  tag_145\n    /* \"#utility.yul\":8413:8417   */\n  dup3\n    /* \"#utility.yul\":8407:8418   */\n  sload\n    /* \"#utility.yul\":8381:8419   */\n  tag_29\n  jump\t// in\ntag_145:\n    /* \"#utility.yul\":8466:8533   */\n  tag_146\n    /* \"#utility.yul\":8526:8532   */\n  dup3\n    /* \"#utility.yul\":8518:8524   */\n  dup3\n    /* \"#utility.yul\":8512:8516   */\n  dup6\n    /* \"#utility.yul\":8466:8533   */\n  tag_41\n  jump\t// in\ntag_146:\n    /* \"#utility.yul\":8560:8561   */\n  0x00\n    /* \"#utility.yul\":8584:8588   */\n  0x20\n    /* \"#utility.yul\":8571:8588   */\n  swap1\n  pop\n    /* \"#utility.yul\":8616:8618   */\n  0x1f\n    /* \"#utility.yul\":8608:8614   */\n  dup4\n    /* \"#utility.yul\":8605:8619   */\n  gt\n    /* \"#utility.yul\":8633:8634   */\n  0x01\n    /* \"#utility.yul\":8628:9246   */\n  dup2\n  eq\n  tag_148\n  jumpi\n    /* \"#utility.yul\":9290:9291   */\n  0x00\n    /* \"#utility.yul\":9307:9313   */\n  dup5\n    /* \"#utility.yul\":9304:9381   */\n  iszero\n  tag_149\n  jumpi\n    /* \"#utility.yul\":9356:9365   */\n  dup3\n    /* \"#utility.yul\":9351:9354   */\n  dup8\n    /* \"#utility.yul\":9347:9366   */\n  add\n    /* \"#utility.yul\":9341:9367   */\n  mload\n    /* \"#utility.yul\":9332:9367   */\n  swap1\n  pop\n    /* \"#utility.yul\":9304:9381   */\ntag_149:\n    /* \"#utility.yul\":9407:9474   */\n  tag_150\n    /* \"#utility.yul\":9467:9473   */\n  dup6\n    /* \"#utility.yul\":9460:9465   */\n  dup3\n    /* \"#utility.yul\":9407:9474   */\n  tag_44\n  jump\t// in\ntag_150:\n    /* \"#utility.yul\":9401:9405   */\n  dup7\n    /* \"#utility.yul\":9394:9475   */\n  sstore\n    /* \"#utility.yul\":9263:9485   */\n  pop\n    /* \"#utility.yul\":8598:9485   */\n  jump(tag_147)\n    /* \"#utility.yul\":8628:9246   */\ntag_148:\n    /* \"#utility.yul\":8680:8684   */\n  0x1f\n    /* \"#utility.yul\":8676:8685   */\n  not\n    /* \"#utility.yul\":8668:8674   */\n  dup5\n    /* \"#utility.yul\":8664:8686   */\n  and\n    /* \"#utility.yul\":8714:8751   */\n  tag_151\n    /* \"#utility.yul\":8746:8750   */\n  dup7\n    /* \"#utility.yul\":8714:8751   */\n  tag_30\n  jump\t// in\ntag_151:\n    /* \"#utility.yul\":8773:8774   */\n  0x00\n    /* \"#utility.yul\":8787:8995   */\ntag_152:\n    /* \"#utility.yul\":8801:8808   */\n  dup3\n    /* \"#utility.yul\":8798:8799   */\n  dup2\n    /* \"#utility.yul\":8795:8809   */\n  lt\n    /* \"#utility.yul\":8787:8995   */\n  iszero\n  tag_154\n  jumpi\n    /* \"#utility.yul\":8880:8889   */\n  dup5\n    /* \"#utility.yul\":8875:8878   */\n  dup10\n    /* \"#utility.yul\":8871:8890   */\n  add\n    /* \"#utility.yul\":8865:8891   */\n  mload\n    /* \"#utility.yul\":8857:8863   */\n  dup3\n    /* \"#utility.yul\":8850:8892   */\n  sstore\n    /* \"#utility.yul\":8931:8932   */\n  0x01\n    /* \"#utility.yul\":8923:8929   */\n  dup3\n    /* \"#utility.yul\":8919:8933   */\n  add\n    /* \"#utility.yul\":8909:8933   */\n  swap2\n  pop\n    /* \"#utility.yul\":8978:8980   */\n  0x20\n    /* \"#utility.yul\":8967:8976   */\n  dup6\n    /* \"#utility.yul\":8963:8981   */\n  add\n    /* \"#utility.yul\":8950:8981   */\n  swap5\n  pop\n    /* \"#utility.yul\":8824:8828   */\n  0x20\n    /* \"#utility.yul\":8821:8822   */\n  dup2\n    /* \"#utility.yul\":8817:8829   */\n  add\n    /* \"#utility.yul\":8812:8829   */\n  swap1\n  pop\n    /* \"#utility.yul\":8787:8995   */\n  jump(tag_152)\ntag_154:\n    /* \"#utility.yul\":9023:9029   */\n  dup7\n    /* \"#utility.yul\":9014:9021   */\n  dup4\n    /* \"#utility.yul\":9011:9030   */\n  lt\n    /* \"#utility.yul\":9008:9187   */\n  iszero\n  tag_155\n  jumpi\n    /* \"#utility.yul\":9081:9090   */\n  dup5\n    /* \"#utility.yul\":9076:9079   */\n  dup10\n    /* \"#utility.yul\":9072:9091   */\n  add\n    /* \"#utility.yul\":9066:9092   */\n  mload\n    /* \"#utility.yul\":9124:9172   */\n  tag_156\n    /* \"#utility.yul\":9166:9170   */\n  0x1f\n    /* \"#utility.yul\":9158:9164   */\n  dup10\n    /* \"#utility.yul\":9154:9171   */\n  and\n    /* \"#utility.yul\":9143:9152   */\n  dup3\n    /* \"#utility.yul\":9124:9172   */\n  tag_43\n  jump\t// in\ntag_156:\n    /* \"#utility.yul\":9116:9122   */\n  dup4\n    /* \"#utility.yul\":9109:9173   */\n  sstore\n    /* \"#utility.yul\":9031:9187   */\n  pop\n    /* \"#utility.yul\":9008:9187   */\ntag_155:\n    /* \"#utility.yul\":9233:9234   */\n  0x01\n    /* \"#utility.yul\":9229:9230   */\n  0x02\n    /* \"#utility.yul\":9221:9227   */\n  dup9\n    /* \"#utility.yul\":9217:9231   */\n  mul\n    /* \"#utility.yul\":9213:9235   */\n  add\n    /* \"#utility.yul\":9207:9211   */\n  dup9\n    /* \"#utility.yul\":9200:9236   */\n  sstore\n    /* \"#utility.yul\":8635:9246   */\n  pop\n  pop\n  pop\n    /* \"#utility.yul\":8598:9485   */\ntag_147:\n  pop\n    /* \"#utility.yul\":8188:9491   */\n  pop\n  pop\n  pop\n    /* \"#utility.yul\":8096:9491   */\n  pop\n  pop\n  jump\t// out\n    /* \"contracts/Client.sol\":60:1688  contract Client{... */\ntag_10:\n  dataSize(sub_0)\n  dup1\n  dataOffset(sub_0)\n  0x00\n  codecopy\n  0x00\n  return\nstop\n\nsub_0: assembly {\n        /* \"contracts/Client.sol\":60:1688  contract Client{... */\n      mstore(0x40, 0x80)\n      callvalue\n      dup1\n      iszero\n      tag_1\n      jumpi\n      0x00\n      dup1\n      revert\n    tag_1:\n      pop\n      jumpi(tag_2, lt(calldatasize, 0x04))\n      shr(0xe0, calldataload(0x00))\n      dup1\n      0x4f8632ba\n      eq\n      tag_3\n      jumpi\n    tag_2:\n      0x00\n      dup1\n      revert\n        /* \"contracts/Client.sol\":270:286  User public user */\n    tag_3:\n      tag_4\n      tag_5\n      jump\t// in\n    tag_4:\n      mload(0x40)\n      tag_6\n      swap7\n      swap6\n      swap5\n      swap4\n      swap3\n      swap2\n      swap1\n      tag_7\n      jump\t// in\n    tag_6:\n      mload(0x40)\n      dup1\n      swap2\n      sub\n      swap1\n      return\n    tag_5:\n      0x00\n      dup1\n      0x00\n      add\n      dup1\n      sload\n      tag_8\n      swap1\n      tag_9\n      jump\t// in\n    tag_8:\n      dup1\n      0x1f\n      add\n      0x20\n      dup1\n      swap2\n      div\n      mul\n      0x20\n      add\n      mload(0x40)\n      swap1\n      dup2\n      add\n      0x40\n      mstore\n      dup1\n      swap3\n      swap2\n      swap1\n      dup2\n      dup2\n      mstore\n      0x20\n      add\n      dup3\n      dup1\n      sload\n      tag_10\n      swap1\n      tag_9\n      jump\t// in\n    tag_10:\n      dup1\n      iszero\n      tag_11\n      jumpi\n      dup1\n      0x1f\n      lt\n      tag_12\n      jumpi\n      0x0100\n      dup1\n      dup4\n      sload\n      div\n      mul\n      dup4\n      mstore\n      swap2\n      0x20\n      add\n      swap2\n      jump(tag_11)\n    tag_12:\n      dup3\n      add\n      swap2\n      swap1\n      0x00\n      mstore\n      keccak256(0x00, 0x20)\n      swap1\n    tag_13:\n      dup2\n      sload\n      dup2\n      mstore\n      swap1\n      0x01\n      add\n      swap1\n      0x20\n      add\n      dup1\n      dup4\n      gt\n      tag_13\n      jumpi\n      dup3\n      swap1\n      sub\n      0x1f\n      and\n      dup3\n      add\n      swap2\n    tag_11:\n      pop\n      pop\n      pop\n      pop\n      pop\n      swap1\n      dup1\n      0x01\n      add\n      dup1\n      sload\n      tag_14\n      swap1\n      tag_9\n      jump\t// in\n    tag_14:\n      dup1\n      0x1f\n      add\n      0x20\n      dup1\n      swap2\n      div\n      mul\n      0x20\n      add\n      mload(0x40)\n      swap1\n      dup2\n      add\n      0x40\n      mstore\n      dup1\n      swap3\n      swap2\n      swap1\n      dup2\n      dup2\n      mstore\n      0x20\n      add\n      dup3\n      dup1\n      sload\n      tag_15\n      swap1\n      tag_9\n      jump\t// in\n    tag_15:\n      dup1\n      iszero\n      tag_16\n      jumpi\n      dup1\n      0x1f\n      lt\n      tag_17\n      jumpi\n      0x0100\n      dup1\n      dup4\n      sload\n      div\n      mul\n      dup4\n      mstore\n      swap2\n      0x20\n      add\n      swap2\n      jump(tag_16)\n    tag_17:\n      dup3\n      add\n      swap2\n      swap1\n      0x00\n      mstore\n      keccak256(0x00, 0x20)\n      swap1\n    tag_18:\n      dup2\n      sload\n      dup2\n      mstore\n      swap1\n      0x01\n      add\n      swap1\n      0x20\n      add\n      dup1\n      dup4\n      gt\n      tag_18\n      jumpi\n      dup3\n      swap1\n      sub\n      0x1f\n      and\n      dup3\n      add\n      swap2\n    tag_16:\n      pop\n      pop\n      pop\n      pop\n      pop\n      swap1\n      dup1\n      0x02\n      add\n      sload\n      swap1\n      dup1\n      0x03\n      add\n      dup1\n      sload\n      tag_19\n      swap1\n      tag_9\n      jump\t// in\n    tag_19:\n      dup1\n      0x1f\n      add\n      0x20\n      dup1\n      swap2\n      div\n      mul\n      0x20\n      add\n      mload(0x40)\n      swap1\n      dup2\n      add\n      0x40\n      mstore\n      dup1\n      swap3\n      swap2\n      swap1\n      dup2\n      dup2\n      mstore\n      0x20\n      add\n      dup3\n      dup1\n      sload\n      tag_20\n      swap1\n      tag_9\n      jump\t// in\n    tag_20:\n      dup1\n      iszero\n      tag_21\n      jumpi\n      dup1\n      0x1f\n      lt\n      tag_22\n      jumpi\n      0x0100\n      dup1\n      dup4\n      sload\n      div\n      mul\n      dup4\n      mstore\n      swap2\n      0x20\n      add\n      swap2\n      jump(tag_21)\n    tag_22:\n      dup3\n      add\n      swap2\n      swap1\n      0x00\n      mstore\n      keccak256(0x00, 0x20)\n      swap1\n    tag_23:\n      dup2\n      sload\n      dup2\n      mstore\n      swap1\n      0x01\n      add\n      swap1\n      0x20\n      add\n      dup1\n      dup4\n      gt\n      tag_23\n      jumpi\n      dup3\n      swap1\n      sub\n      0x1f\n      and\n      dup3\n      add\n      swap2\n    tag_21:\n      pop\n      pop\n      pop\n      pop\n      pop\n      swap1\n      dup1\n      0x04\n      add\n      sload\n      swap1\n      dup1\n      0x05\n      add\n      0x00\n      swap1\n      sload\n      swap1\n      0x0100\n      exp\n      swap1\n      div\n      0xffffffffffffffffffffffffffffffffffffffff\n      and\n      swap1\n      pop\n      dup7\n      jump\t// out\n        /* \"#utility.yul\":7:106   */\n    tag_24:\n        /* \"#utility.yul\":59:65   */\n      0x00\n        /* \"#utility.yul\":93:98   */\n      dup2\n        /* \"#utility.yul\":87:99   */\n      mload\n        /* \"#utility.yul\":77:99   */\n      swap1\n      pop\n        /* \"#utility.yul\":7:106   */\n      swap2\n      swap1\n      pop\n      jump\t// out\n        /* \"#utility.yul\":112:281   */\n    tag_25:\n        /* \"#utility.yul\":196:207   */\n      0x00\n        /* \"#utility.yul\":230:236   */\n      dup3\n        /* \"#utility.yul\":225:228   */\n      dup3\n        /* \"#utility.yul\":218:237   */\n      mstore\n        /* \"#utility.yul\":270:274   */\n      0x20\n        /* \"#utility.yul\":265:268   */\n      dup3\n        /* \"#utility.yul\":261:275   */\n      add\n        /* \"#utility.yul\":246:275   */\n      swap1\n      pop\n        /* \"#utility.yul\":112:281   */\n      swap3\n      swap2\n      pop\n      pop\n      jump\t// out\n        /* \"#utility.yul\":287:533   */\n    tag_26:\n        /* \"#utility.yul\":368:369   */\n      0x00\n        /* \"#utility.yul\":378:491   */\n    tag_39:\n        /* \"#utility.yul\":392:398   */\n      dup4\n        /* \"#utility.yul\":389:390   */\n      dup2\n        /* \"#utility.yul\":386:399   */\n      lt\n        /* \"#utility.yul\":378:491   */\n      iszero\n      tag_41\n      jumpi\n        /* \"#utility.yul\":477:478   */\n      dup1\n        /* \"#utility.yul\":472:475   */\n      dup3\n        /* \"#utility.yul\":468:479   */\n      add\n        /* \"#utility.yul\":462:480   */\n      mload\n        /* \"#utility.yul\":458:459   */\n      dup2\n        /* \"#utility.yul\":453:456   */\n      dup5\n        /* \"#utility.yul\":449:460   */\n      add\n        /* \"#utility.yul\":442:481   */\n      mstore\n        /* \"#utility.yul\":414:416   */\n      0x20\n        /* \"#utility.yul\":411:412   */\n      dup2\n        /* \"#utility.yul\":407:417   */\n      add\n        /* \"#utility.yul\":402:417   */\n      swap1\n      pop\n        /* \"#utility.yul\":378:491   */\n      jump(tag_39)\n    tag_41:\n        /* \"#utility.yul\":525:526   */\n      0x00\n        /* \"#utility.yul\":516:522   */\n      dup5\n        /* \"#utility.yul\":511:514   */\n      dup5\n        /* \"#utility.yul\":507:523   */\n      add\n        /* \"#utility.yul\":500:527   */\n      mstore\n        /* \"#utility.yul\":349:533   */\n      pop\n        /* \"#utility.yul\":287:533   */\n      pop\n      pop\n      pop\n      jump\t// out\n        /* \"#utility.yul\":539:641   */\n    tag_27:\n        /* \"#utility.yul\":580:586   */\n      0x00\n        /* \"#utility.yul\":631:633   */\n      0x1f\n        /* \"#utility.yul\":627:634   */\n      not\n        /* \"#utility.yul\":622:624   */\n      0x1f\n        /* \"#utility.yul\":615:620   */\n      dup4\n        /* \"#utility.yul\":611:625   */\n      add\n        /* \"#utility.yul\":607:635   */\n      and\n        /* \"#utility.yul\":597:635   */\n      swap1\n      pop\n        /* \"#utility.yul\":539:641   */\n      swap2\n      swap1\n      pop\n      jump\t// out\n        /* \"#utility.yul\":647:1024   */\n    tag_28:\n        /* \"#utility.yul\":735:738   */\n      0x00\n        /* \"#utility.yul\":763:802   */\n      tag_44\n        /* \"#utility.yul\":796:801   */\n      dup3\n        /* \"#utility.yul\":763:802   */\n      tag_24\n      jump\t// in\n    tag_44:\n        /* \"#utility.yul\":818:889   */\n      tag_45\n        /* \"#utility.yul\":882:888   */\n      dup2\n        /* \"#utility.yul\":877:880   */\n      dup6\n        /* \"#utility.yul\":818:889   */\n      tag_25\n      jump\t// in\n    tag_45:\n        /* \"#utility.yul\":811:889   */\n      swap4\n      pop\n        /* \"#utility.yul\":898:963   */\n      tag_46\n        /* \"#utility.yul\":956:962   */\n      dup2\n        /* \"#utility.yul\":951:954   */\n      dup6\n        /* \"#utility.yul\":944:948   */\n      0x20\n        /* \"#utility.yul\":937:942   */\n      dup7\n        /* \"#utility.yul\":933:949   */\n      add\n        /* \"#utility.yul\":898:963   */\n      tag_26\n      jump\t// in\n    tag_46:\n        /* \"#utility.yul\":988:1017   */\n      tag_47\n        /* \"#utility.yul\":1010:1016   */\n      dup2\n        /* \"#utility.yul\":988:1017   */\n      tag_27\n      jump\t// in\n    tag_47:\n        /* \"#utility.yul\":983:986   */\n      dup5\n        /* \"#utility.yul\":979:1018   */\n      add\n        /* \"#utility.yul\":972:1018   */\n      swap2\n      pop\n        /* \"#utility.yul\":739:1024   */\n      pop\n        /* \"#utility.yul\":647:1024   */\n      swap3\n      swap2\n      pop\n      pop\n      jump\t// out\n        /* \"#utility.yul\":1030:1107   */\n    tag_29:\n        /* \"#utility.yul\":1067:1074   */\n      0x00\n        /* \"#utility.yul\":1096:1101   */\n      dup2\n        /* \"#utility.yul\":1085:1101   */\n      swap1\n      pop\n        /* \"#utility.yul\":1030:1107   */\n      swap2\n      swap1\n      pop\n      jump\t// out\n        /* \"#utility.yul\":1113:1231   */\n    tag_30:\n        /* \"#utility.yul\":1200:1224   */\n      tag_50\n        /* \"#utility.yul\":1218:1223   */\n      dup2\n        /* \"#utility.yul\":1200:1224   */\n      tag_29\n      jump\t// in\n    tag_50:\n        /* \"#utility.yul\":1195:1198   */\n      dup3\n        /* \"#utility.yul\":1188:1225   */\n      mstore\n        /* \"#utility.yul\":1113:1231   */\n      pop\n      pop\n      jump\t// out\n        /* \"#utility.yul\":1237:1363   */\n    tag_31:\n        /* \"#utility.yul\":1274:1281   */\n      0x00\n        /* \"#utility.yul\":1314:1356   */\n      0xffffffffffffffffffffffffffffffffffffffff\n        /* \"#utility.yul\":1307:1312   */\n      dup3\n        /* \"#utility.yul\":1303:1357   */\n      and\n        /* \"#utility.yul\":1292:1357   */\n      swap1\n      pop\n        /* \"#utility.yul\":1237:1363   */\n      swap2\n      swap1\n      pop\n      jump\t// out\n        /* \"#utility.yul\":1369:1465   */\n    tag_32:\n        /* \"#utility.yul\":1406:1413   */\n      0x00\n        /* \"#utility.yul\":1435:1459   */\n      tag_53\n        /* \"#utility.yul\":1453:1458   */\n      dup3\n        /* \"#utility.yul\":1435:1459   */\n      tag_31\n      jump\t// in\n    tag_53:\n        /* \"#utility.yul\":1424:1459   */\n      swap1\n      pop\n        /* \"#utility.yul\":1369:1465   */\n      swap2\n      swap1\n      pop\n      jump\t// out\n        /* \"#utility.yul\":1471:1589   */\n    tag_33:\n        /* \"#utility.yul\":1558:1582   */\n      tag_55\n        /* \"#utility.yul\":1576:1581   */\n      dup2\n        /* \"#utility.yul\":1558:1582   */\n      tag_32\n      jump\t// in\n    tag_55:\n        /* \"#utility.yul\":1553:1556   */\n      dup3\n        /* \"#utility.yul\":1546:1583   */\n      mstore\n        /* \"#utility.yul\":1471:1589   */\n      pop\n      pop\n      jump\t// out\n        /* \"#utility.yul\":1595:2643   */\n    tag_7:\n        /* \"#utility.yul\":1888:1892   */\n      0x00\n        /* \"#utility.yul\":1926:1929   */\n      0xc0\n        /* \"#utility.yul\":1915:1924   */\n      dup3\n        /* \"#utility.yul\":1911:1930   */\n      add\n        /* \"#utility.yul\":1903:1930   */\n      swap1\n      pop\n        /* \"#utility.yul\":1976:1985   */\n      dup2\n        /* \"#utility.yul\":1970:1974   */\n      dup2\n        /* \"#utility.yul\":1966:1986   */\n      sub\n        /* \"#utility.yul\":1962:1963   */\n      0x00\n        /* \"#utility.yul\":1951:1960   */\n      dup4\n        /* \"#utility.yul\":1947:1964   */\n      add\n        /* \"#utility.yul\":1940:1987   */\n      mstore\n        /* \"#utility.yul\":2004:2082   */\n      tag_57\n        /* \"#utility.yul\":2077:2081   */\n      dup2\n        /* \"#utility.yul\":2068:2074   */\n      dup10\n        /* \"#utility.yul\":2004:2082   */\n      tag_28\n      jump\t// in\n    tag_57:\n        /* \"#utility.yul\":1996:2082   */\n      swap1\n      pop\n        /* \"#utility.yul\":2129:2138   */\n      dup2\n        /* \"#utility.yul\":2123:2127   */\n      dup2\n        /* \"#utility.yul\":2119:2139   */\n      sub\n        /* \"#utility.yul\":2114:2116   */\n      0x20\n        /* \"#utility.yul\":2103:2112   */\n      dup4\n        /* \"#utility.yul\":2099:2117   */\n      add\n        /* \"#utility.yul\":2092:2140   */\n      mstore\n        /* \"#utility.yul\":2157:2235   */\n      tag_58\n        /* \"#utility.yul\":2230:2234   */\n      dup2\n        /* \"#utility.yul\":2221:2227   */\n      dup9\n        /* \"#utility.yul\":2157:2235   */\n      tag_28\n      jump\t// in\n    tag_58:\n        /* \"#utility.yul\":2149:2235   */\n      swap1\n      pop\n        /* \"#utility.yul\":2245:2317   */\n      tag_59\n        /* \"#utility.yul\":2313:2315   */\n      0x40\n        /* \"#utility.yul\":2302:2311   */\n      dup4\n        /* \"#utility.yul\":2298:2316   */\n      add\n        /* \"#utility.yul\":2289:2295   */\n      dup8\n        /* \"#utility.yul\":2245:2317   */\n      tag_30\n      jump\t// in\n    tag_59:\n        /* \"#utility.yul\":2364:2373   */\n      dup2\n        /* \"#utility.yul\":2358:2362   */\n      dup2\n        /* \"#utility.yul\":2354:2374   */\n      sub\n        /* \"#utility.yul\":2349:2351   */\n      0x60\n        /* \"#utility.yul\":2338:2347   */\n      dup4\n        /* \"#utility.yul\":2334:2352   */\n      add\n        /* \"#utility.yul\":2327:2375   */\n      mstore\n        /* \"#utility.yul\":2392:2470   */\n      tag_60\n        /* \"#utility.yul\":2465:2469   */\n      dup2\n        /* \"#utility.yul\":2456:2462   */\n      dup7\n        /* \"#utility.yul\":2392:2470   */\n      tag_28\n      jump\t// in\n    tag_60:\n        /* \"#utility.yul\":2384:2470   */\n      swap1\n      pop\n        /* \"#utility.yul\":2480:2553   */\n      tag_61\n        /* \"#utility.yul\":2548:2551   */\n      0x80\n        /* \"#utility.yul\":2537:2546   */\n      dup4\n        /* \"#utility.yul\":2533:2552   */\n      add\n        /* \"#utility.yul\":2524:2530   */\n      dup6\n        /* \"#utility.yul\":2480:2553   */\n      tag_30\n      jump\t// in\n    tag_61:\n        /* \"#utility.yul\":2563:2636   */\n      tag_62\n        /* \"#utility.yul\":2631:2634   */\n      0xa0\n        /* \"#utility.yul\":2620:2629   */\n      dup4\n        /* \"#utility.yul\":2616:2635   */\n      add\n        /* \"#utility.yul\":2607:2613   */\n      dup5\n        /* \"#utility.yul\":2563:2636   */\n      tag_33\n      jump\t// in\n    tag_62:\n        /* \"#utility.yul\":1595:2643   */\n      swap8\n      swap7\n      pop\n      pop\n      pop\n      pop\n      pop\n      pop\n      pop\n      jump\t// out\n        /* \"#utility.yul\":2649:2829   */\n    tag_34:\n        /* \"#utility.yul\":2697:2774   */\n      0x4e487b7100000000000000000000000000000000000000000000000000000000\n        /* \"#utility.yul\":2694:2695   */\n      0x00\n        /* \"#utility.yul\":2687:2775   */\n      mstore\n        /* \"#utility.yul\":2794:2798   */\n      0x22\n        /* \"#utility.yul\":2791:2792   */\n      0x04\n        /* \"#utility.yul\":2784:2799   */\n      mstore\n        /* \"#utility.yul\":2818:2822   */\n      0x24\n        /* \"#utility.yul\":2815:2816   */\n      0x00\n        /* \"#utility.yul\":2808:2823   */\n      revert\n        /* \"#utility.yul\":2835:3155   */\n    tag_9:\n        /* \"#utility.yul\":2879:2885   */\n      0x00\n        /* \"#utility.yul\":2916:2917   */\n      0x02\n        /* \"#utility.yul\":2910:2914   */\n      dup3\n        /* \"#utility.yul\":2906:2918   */\n      div\n        /* \"#utility.yul\":2896:2918   */\n      swap1\n      pop\n        /* \"#utility.yul\":2963:2964   */\n      0x01\n        /* \"#utility.yul\":2957:2961   */\n      dup3\n        /* \"#utility.yul\":2953:2965   */\n      and\n        /* \"#utility.yul\":2984:3002   */\n      dup1\n        /* \"#utility.yul\":2974:3055   */\n      tag_65\n      jumpi\n        /* \"#utility.yul\":3040:3044   */\n      0x7f\n        /* \"#utility.yul\":3032:3038   */\n      dup3\n        /* \"#utility.yul\":3028:3045   */\n      and\n        /* \"#utility.yul\":3018:3045   */\n      swap2\n      pop\n        /* \"#utility.yul\":2974:3055   */\n    tag_65:\n        /* \"#utility.yul\":3102:3104   */\n      0x20\n        /* \"#utility.yul\":3094:3100   */\n      dup3\n        /* \"#utility.yul\":3091:3105   */\n      lt\n        /* \"#utility.yul\":3071:3089   */\n      dup2\n        /* \"#utility.yul\":3068:3106   */\n      sub\n        /* \"#utility.yul\":3065:3149   */\n      tag_66\n      jumpi\n        /* \"#utility.yul\":3121:3139   */\n      tag_67\n      tag_34\n      jump\t// in\n    tag_67:\n        /* \"#utility.yul\":3065:3149   */\n    tag_66:\n        /* \"#utility.yul\":2886:3155   */\n      pop\n        /* \"#utility.yul\":2835:3155   */\n      swap2\n      swap1\n      pop\n      jump\t// out\n\n    auxdata: 0xa2646970667358221220c5e0a3deb12003c10f78ca2022b062d4e47e8e462c2480fdfa841c21223bee2a64736f6c63430008120033\n}\n",
				"bytecode": {
					"linkReferences": {},
					"object": "60806040523480156200001157600080fd5b5060405162000b4238038062000b428339818101604052810190620000379190620002fa565b6040518060c001604052808681526020018581526020018481526020018381526020018281526020013373ffffffffffffffffffffffffffffffffffffffff1681525060008082015181600001908162000092919062000620565b506020820151816001019081620000aa919062000620565b50604082015181600201556060820151816003019081620000cc919062000620565b506080820151816004015560a08201518160050160006101000a81548173ffffffffffffffffffffffffffffffffffffffff021916908373ffffffffffffffffffffffffffffffffffffffff160217905550905050505050505062000707565b6000604051905090565b600080fd5b600080fd5b600080fd5b600080fd5b6000601f19601f8301169050919050565b7f4e487b7100000000000000000000000000000000000000000000000000000000600052604160045260246000fd5b62000195826200014a565b810181811067ffffffffffffffff82111715620001b757620001b66200015b565b5b80604052505050565b6000620001cc6200012c565b9050620001da82826200018a565b919050565b600067ffffffffffffffff821115620001fd57620001fc6200015b565b5b62000208826200014a565b9050602081019050919050565b60005b838110156200023557808201518184015260208101905062000218565b60008484015250505050565b6000620002586200025284620001df565b620001c0565b90508281526020810184848401111562000277576200027662000145565b5b6200028484828562000215565b509392505050565b600082601f830112620002a457620002a362000140565b5b8151620002b684826020860162000241565b91505092915050565b6000819050919050565b620002d481620002bf565b8114620002e057600080fd5b50565b600081519050620002f481620002c9565b92915050565b600080600080600060a0868803121562000319576200031862000136565b5b600086015167ffffffffffffffff8111156200033a57620003396200013b565b5b62000348888289016200028c565b955050602086015167ffffffffffffffff8111156200036c576200036b6200013b565b5b6200037a888289016200028c565b94505060406200038d88828901620002e3565b935050606086015167ffffffffffffffff811115620003b157620003b06200013b565b5b620003bf888289016200028c565b9250506080620003d288828901620002e3565b9150509295509295909350565b600081519050919050565b7f4e487b7100000000000000000000000000000000000000000000000000000000600052602260045260246000fd5b600060028204905060018216806200043257607f821691505b602082108103620004485762000447620003ea565b5b50919050565b60008190508160005260206000209050919050565b60006020601f8301049050919050565b600082821b905092915050565b600060088302620004b27fffffffffffffffffffffffffffffffffffffffffffffffffffffffffffffffff8262000473565b620004be868362000473565b95508019841693508086168417925050509392505050565b6000819050919050565b600062000501620004fb620004f584620002bf565b620004d6565b620002bf565b9050919050565b6000819050919050565b6200051d83620004e0565b620005356200052c8262000508565b84845462000480565b825550505050565b600090565b6200054c6200053d565b6200055981848462000512565b505050565b5b8181101562000581576200057560008262000542565b6001810190506200055f565b5050565b601f821115620005d0576200059a816200044e565b620005a58462000463565b81016020851015620005b5578190505b620005cd620005c48562000463565b8301826200055e565b50505b505050565b600082821c905092915050565b6000620005f560001984600802620005d5565b1980831691505092915050565b6000620006108383620005e2565b9150826002028217905092915050565b6200062b82620003df565b67ffffffffffffffff8111156200064757620006466200015b565b5b62000653825462000419565b6200066082828562000585565b600060209050601f83116001811462000698576000841562000683578287015190505b6200068f858262000602565b865550620006ff565b601f198416620006a8866200044e565b60005b82811015620006d257848901518255600182019150602085019450602081019050620006ab565b86831015620006f25784890151620006ee601f891682620005e2565b8355505b6001600288020188555050505b505050505050565b61042b80620007176000396000f3fe608060405234801561001057600080fd5b506004361061002b5760003560e01c80634f8632ba14610030575b600080fd5b610038610053565b60405161004a9695949392919061031f565b60405180910390f35b6000806000018054610064906103c4565b80601f0160208091040260200160405190810160405280929190818152602001828054610090906103c4565b80156100dd5780601f106100b2576101008083540402835291602001916100dd565b820191906000526020600020905b8154815290600101906020018083116100c057829003601f168201915b5050505050908060010180546100f2906103c4565b80601f016020809104026020016040519081016040528092919081815260200182805461011e906103c4565b801561016b5780601f106101405761010080835404028352916020019161016b565b820191906000526020600020905b81548152906001019060200180831161014e57829003601f168201915b505050505090806002015490806003018054610186906103c4565b80601f01602080910402602001604051908101604052809291908181526020018280546101b2906103c4565b80156101ff5780601f106101d4576101008083540402835291602001916101ff565b820191906000526020600020905b8154815290600101906020018083116101e257829003601f168201915b5050505050908060040154908060050160009054906101000a900473ffffffffffffffffffffffffffffffffffffffff16905086565b600081519050919050565b600082825260208201905092915050565b60005b8381101561026f578082015181840152602081019050610254565b60008484015250505050565b6000601f19601f8301169050919050565b600061029782610235565b6102a18185610240565b93506102b1818560208601610251565b6102ba8161027b565b840191505092915050565b6000819050919050565b6102d8816102c5565b82525050565b600073ffffffffffffffffffffffffffffffffffffffff82169050919050565b6000610309826102de565b9050919050565b610319816102fe565b82525050565b600060c0820190508181036000830152610339818961028c565b9050818103602083015261034d818861028c565b905061035c60408301876102cf565b818103606083015261036e818661028c565b905061037d60808301856102cf565b61038a60a0830184610310565b979650505050505050565b7f4e487b7100000000000000000000000000000000000000000000000000000000600052602260045260246000fd5b600060028204905060018216806103dc57607f821691505b6020821081036103ef576103ee610395565b5b5091905056fea2646970667358221220c5e0a3deb12003c10f78ca2022b062d4e47e8e462c2480fdfa841c21223bee2a64736f6c63430008120033",
					"opcodes": "PUSH1 0x80 PUSH1 0x40 MSTORE CALLVALUE DUP1 ISZERO PUSH3 0x11 JUMPI PUSH1 0x0 DUP1 REVERT JUMPDEST POP PUSH1 0x40 MLOAD PUSH3 0xB42 CODESIZE SUB DUP1 PUSH3 0xB42 DUP4 CODECOPY DUP2 DUP2 ADD PUSH1 0x40 MSTORE DUP2 ADD SWAP1 PUSH3 0x37 SWAP2 SWAP1 PUSH3 0x2FA JUMP JUMPDEST PUSH1 0x40 MLOAD DUP1 PUSH1 0xC0 ADD PUSH1 0x40 MSTORE DUP1 DUP7 DUP2 MSTORE PUSH1 0x20 ADD DUP6 DUP2 MSTORE PUSH1 0x20 ADD DUP5 DUP2 MSTORE PUSH1 0x20 ADD DUP4 DUP2 MSTORE PUSH1 0x20 ADD DUP3 DUP2 MSTORE PUSH1 0x20 ADD CALLER PUSH20 0xFFFFFFFFFFFFFFFFFFFFFFFFFFFFFFFFFFFFFFFF AND DUP2 MSTORE POP PUSH1 0x0 DUP1 DUP3 ADD MLOAD DUP2 PUSH1 0x0 ADD SWAP1 DUP2 PUSH3 0x92 SWAP2 SWAP1 PUSH3 0x620 JUMP JUMPDEST POP PUSH1 0x20 DUP3 ADD MLOAD DUP2 PUSH1 0x1 ADD SWAP1 DUP2 PUSH3 0xAA SWAP2 SWAP1 PUSH3 0x620 JUMP JUMPDEST POP PUSH1 0x40 DUP3 ADD MLOAD DUP2 PUSH1 0x2 ADD SSTORE PUSH1 0x60 DUP3 ADD MLOAD DUP2 PUSH1 0x3 ADD SWAP1 DUP2 PUSH3 0xCC SWAP2 SWAP1 PUSH3 0x620 JUMP JUMPDEST POP PUSH1 0x80 DUP3 ADD MLOAD DUP2 PUSH1 0x4 ADD SSTORE PUSH1 0xA0 DUP3 ADD MLOAD DUP2 PUSH1 0x5 ADD PUSH1 0x0 PUSH2 0x100 EXP DUP2 SLOAD DUP2 PUSH20 0xFFFFFFFFFFFFFFFFFFFFFFFFFFFFFFFFFFFFFFFF MUL NOT AND SWAP1 DUP4 PUSH20 0xFFFFFFFFFFFFFFFFFFFFFFFFFFFFFFFFFFFFFFFF AND MUL OR SWAP1 SSTORE POP SWAP1 POP POP POP POP POP POP POP PUSH3 0x707 JUMP JUMPDEST PUSH1 0x0 PUSH1 0x40 MLOAD SWAP1 POP SWAP1 JUMP JUMPDEST PUSH1 0x0 DUP1 REVERT JUMPDEST PUSH1 0x0 DUP1 REVERT JUMPDEST PUSH1 0x0 DUP1 REVERT JUMPDEST PUSH1 0x0 DUP1 REVERT JUMPDEST PUSH1 0x0 PUSH1 0x1F NOT PUSH1 0x1F DUP4 ADD AND SWAP1 POP SWAP2 SWAP1 POP JUMP JUMPDEST PUSH32 0x4E487B7100000000000000000000000000000000000000000000000000000000 PUSH1 0x0 MSTORE PUSH1 0x41 PUSH1 0x4 MSTORE PUSH1 0x24 PUSH1 0x0 REVERT JUMPDEST PUSH3 0x195 DUP3 PUSH3 0x14A JUMP JUMPDEST DUP2 ADD DUP2 DUP2 LT PUSH8 0xFFFFFFFFFFFFFFFF DUP3 GT OR ISZERO PUSH3 0x1B7 JUMPI PUSH3 0x1B6 PUSH3 0x15B JUMP JUMPDEST JUMPDEST DUP1 PUSH1 0x40 MSTORE POP POP POP JUMP JUMPDEST PUSH1 0x0 PUSH3 0x1CC PUSH3 0x12C JUMP JUMPDEST SWAP1 POP PUSH3 0x1DA DUP3 DUP3 PUSH3 0x18A JUMP JUMPDEST SWAP2 SWAP1 POP JUMP JUMPDEST PUSH1 0x0 PUSH8 0xFFFFFFFFFFFFFFFF DUP3 GT ISZERO PUSH3 0x1FD JUMPI PUSH3 0x1FC PUSH3 0x15B JUMP JUMPDEST JUMPDEST PUSH3 0x208 DUP3 PUSH3 0x14A JUMP JUMPDEST SWAP1 POP PUSH1 0x20 DUP2 ADD SWAP1 POP SWAP2 SWAP1 POP JUMP JUMPDEST PUSH1 0x0 JUMPDEST DUP4 DUP2 LT ISZERO PUSH3 0x235 JUMPI DUP1 DUP3 ADD MLOAD DUP2 DUP5 ADD MSTORE PUSH1 0x20 DUP2 ADD SWAP1 POP PUSH3 0x218 JUMP JUMPDEST PUSH1 0x0 DUP5 DUP5 ADD MSTORE POP POP POP POP JUMP JUMPDEST PUSH1 0x0 PUSH3 0x258 PUSH3 0x252 DUP5 PUSH3 0x1DF JUMP JUMPDEST PUSH3 0x1C0 JUMP JUMPDEST SWAP1 POP DUP3 DUP2 MSTORE PUSH1 0x20 DUP2 ADD DUP5 DUP5 DUP5 ADD GT ISZERO PUSH3 0x277 JUMPI PUSH3 0x276 PUSH3 0x145 JUMP JUMPDEST JUMPDEST PUSH3 0x284 DUP5 DUP3 DUP6 PUSH3 0x215 JUMP JUMPDEST POP SWAP4 SWAP3 POP POP POP JUMP JUMPDEST PUSH1 0x0 DUP3 PUSH1 0x1F DUP4 ADD SLT PUSH3 0x2A4 JUMPI PUSH3 0x2A3 PUSH3 0x140 JUMP JUMPDEST JUMPDEST DUP2 MLOAD PUSH3 0x2B6 DUP5 DUP3 PUSH1 0x20 DUP7 ADD PUSH3 0x241 JUMP JUMPDEST SWAP2 POP POP SWAP3 SWAP2 POP POP JUMP JUMPDEST PUSH1 0x0 DUP2 SWAP1 POP SWAP2 SWAP1 POP JUMP JUMPDEST PUSH3 0x2D4 DUP2 PUSH3 0x2BF JUMP JUMPDEST DUP2 EQ PUSH3 0x2E0 JUMPI PUSH1 0x0 DUP1 REVERT JUMPDEST POP JUMP JUMPDEST PUSH1 0x0 DUP2 MLOAD SWAP1 POP PUSH3 0x2F4 DUP2 PUSH3 0x2C9 JUMP JUMPDEST SWAP3 SWAP2 POP POP JUMP JUMPDEST PUSH1 0x0 DUP1 PUSH1 0x0 DUP1 PUSH1 0x0 PUSH1 0xA0 DUP7 DUP9 SUB SLT ISZERO PUSH3 0x319 JUMPI PUSH3 0x318 PUSH3 0x136 JUMP JUMPDEST JUMPDEST PUSH1 0x0 DUP7 ADD MLOAD PUSH8 0xFFFFFFFFFFFFFFFF DUP2 GT ISZERO PUSH3 0x33A JUMPI PUSH3 0x339 PUSH3 0x13B JUMP JUMPDEST JUMPDEST PUSH3 0x348 DUP9 DUP3 DUP10 ADD PUSH3 0x28C JUMP JUMPDEST SWAP6 POP POP PUSH1 0x20 DUP7 ADD MLOAD PUSH8 0xFFFFFFFFFFFFFFFF DUP2 GT ISZERO PUSH3 0x36C JUMPI PUSH3 0x36B PUSH3 0x13B JUMP JUMPDEST JUMPDEST PUSH3 0x37A DUP9 DUP3 DUP10 ADD PUSH3 0x28C JUMP JUMPDEST SWAP5 POP POP PUSH1 0x40 PUSH3 0x38D DUP9 DUP3 DUP10 ADD PUSH3 0x2E3 JUMP JUMPDEST SWAP4 POP POP PUSH1 0x60 DUP7 ADD MLOAD PUSH8 0xFFFFFFFFFFFFFFFF DUP2 GT ISZERO PUSH3 0x3B1 JUMPI PUSH3 0x3B0 PUSH3 0x13B JUMP JUMPDEST JUMPDEST PUSH3 0x3BF DUP9 DUP3 DUP10 ADD PUSH3 0x28C JUMP JUMPDEST SWAP3 POP POP PUSH1 0x80 PUSH3 0x3D2 DUP9 DUP3 DUP10 ADD PUSH3 0x2E3 JUMP JUMPDEST SWAP2 POP POP SWAP3 SWAP6 POP SWAP3 SWAP6 SWAP1 SWAP4 POP JUMP JUMPDEST PUSH1 0x0 DUP2 MLOAD SWAP1 POP SWAP2 SWAP1 POP JUMP JUMPDEST PUSH32 0x4E487B7100000000000000000000000000000000000000000000000000000000 PUSH1 0x0 MSTORE PUSH1 0x22 PUSH1 0x4 MSTORE PUSH1 0x24 PUSH1 0x0 REVERT JUMPDEST PUSH1 0x0 PUSH1 0x2 DUP3 DIV SWAP1 POP PUSH1 0x1 DUP3 AND DUP1 PUSH3 0x432 JUMPI PUSH1 0x7F DUP3 AND SWAP2 POP JUMPDEST PUSH1 0x20 DUP3 LT DUP2 SUB PUSH3 0x448 JUMPI PUSH3 0x447 PUSH3 0x3EA JUMP JUMPDEST JUMPDEST POP SWAP2 SWAP1 POP JUMP JUMPDEST PUSH1 0x0 DUP2 SWAP1 POP DUP2 PUSH1 0x0 MSTORE PUSH1 0x20 PUSH1 0x0 KECCAK256 SWAP1 POP SWAP2 SWAP1 POP JUMP JUMPDEST PUSH1 0x0 PUSH1 0x20 PUSH1 0x1F DUP4 ADD DIV SWAP1 POP SWAP2 SWAP1 POP JUMP JUMPDEST PUSH1 0x0 DUP3 DUP3 SHL SWAP1 POP SWAP3 SWAP2 POP POP JUMP JUMPDEST PUSH1 0x0 PUSH1 0x8 DUP4 MUL PUSH3 0x4B2 PUSH32 0xFFFFFFFFFFFFFFFFFFFFFFFFFFFFFFFFFFFFFFFFFFFFFFFFFFFFFFFFFFFFFFFF DUP3 PUSH3 0x473 JUMP JUMPDEST PUSH3 0x4BE DUP7 DUP4 PUSH3 0x473 JUMP JUMPDEST SWAP6 POP DUP1 NOT DUP5 AND SWAP4 POP DUP1 DUP7 AND DUP5 OR SWAP3 POP POP POP SWAP4 SWAP3 POP POP POP JUMP JUMPDEST PUSH1 0x0 DUP2 SWAP1 POP SWAP2 SWAP1 POP JUMP JUMPDEST PUSH1 0x0 PUSH3 0x501 PUSH3 0x4FB PUSH3 0x4F5 DUP5 PUSH3 0x2BF JUMP JUMPDEST PUSH3 0x4D6 JUMP JUMPDEST PUSH3 0x2BF JUMP JUMPDEST SWAP1 POP SWAP2 SWAP1 POP JUMP JUMPDEST PUSH1 0x0 DUP2 SWAP1 POP SWAP2 SWAP1 POP JUMP JUMPDEST PUSH3 0x51D DUP4 PUSH3 0x4E0 JUMP JUMPDEST PUSH3 0x535 PUSH3 0x52C DUP3 PUSH3 0x508 JUMP JUMPDEST DUP5 DUP5 SLOAD PUSH3 0x480 JUMP JUMPDEST DUP3 SSTORE POP POP POP POP JUMP JUMPDEST PUSH1 0x0 SWAP1 JUMP JUMPDEST PUSH3 0x54C PUSH3 0x53D JUMP JUMPDEST PUSH3 0x559 DUP2 DUP5 DUP5 PUSH3 0x512 JUMP JUMPDEST POP POP POP JUMP JUMPDEST JUMPDEST DUP2 DUP2 LT ISZERO PUSH3 0x581 JUMPI PUSH3 0x575 PUSH1 0x0 DUP3 PUSH3 0x542 JUMP JUMPDEST PUSH1 0x1 DUP2 ADD SWAP1 POP PUSH3 0x55F JUMP JUMPDEST POP POP JUMP JUMPDEST PUSH1 0x1F DUP3 GT ISZERO PUSH3 0x5D0 JUMPI PUSH3 0x59A DUP2 PUSH3 0x44E JUMP JUMPDEST PUSH3 0x5A5 DUP5 PUSH3 0x463 JUMP JUMPDEST DUP2 ADD PUSH1 0x20 DUP6 LT ISZERO PUSH3 0x5B5 JUMPI DUP2 SWAP1 POP JUMPDEST PUSH3 0x5CD PUSH3 0x5C4 DUP6 PUSH3 0x463 JUMP JUMPDEST DUP4 ADD DUP3 PUSH3 0x55E JUMP JUMPDEST POP POP JUMPDEST POP POP POP JUMP JUMPDEST PUSH1 0x0 DUP3 DUP3 SHR SWAP1 POP SWAP3 SWAP2 POP POP JUMP JUMPDEST PUSH1 0x0 PUSH3 0x5F5 PUSH1 0x0 NOT DUP5 PUSH1 0x8 MUL PUSH3 0x5D5 JUMP JUMPDEST NOT DUP1 DUP4 AND SWAP2 POP POP SWAP3 SWAP2 POP POP JUMP JUMPDEST PUSH1 0x0 PUSH3 0x610 DUP4 DUP4 PUSH3 0x5E2 JUMP JUMPDEST SWAP2 POP DUP3 PUSH1 0x2 MUL DUP3 OR SWAP1 POP SWAP3 SWAP2 POP POP JUMP JUMPDEST PUSH3 0x62B DUP3 PUSH3 0x3DF JUMP JUMPDEST PUSH8 0xFFFFFFFFFFFFFFFF DUP2 GT ISZERO PUSH3 0x647 JUMPI PUSH3 0x646 PUSH3 0x15B JUMP JUMPDEST JUMPDEST PUSH3 0x653 DUP3 SLOAD PUSH3 0x419 JUMP JUMPDEST PUSH3 0x660 DUP3 DUP3 DUP6 PUSH3 0x585 JUMP JUMPDEST PUSH1 0x0 PUSH1 0x20 SWAP1 POP PUSH1 0x1F DUP4 GT PUSH1 0x1 DUP2 EQ PUSH3 0x698 JUMPI PUSH1 0x0 DUP5 ISZERO PUSH3 0x683 JUMPI DUP3 DUP8 ADD MLOAD SWAP1 POP JUMPDEST PUSH3 0x68F DUP6 DUP3 PUSH3 0x602 JUMP JUMPDEST DUP7 SSTORE POP PUSH3 0x6FF JUMP JUMPDEST PUSH1 0x1F NOT DUP5 AND PUSH3 0x6A8 DUP7 PUSH3 0x44E JUMP JUMPDEST PUSH1 0x0 JUMPDEST DUP3 DUP2 LT ISZERO PUSH3 0x6D2 JUMPI DUP5 DUP10 ADD MLOAD DUP3 SSTORE PUSH1 0x1 DUP3 ADD SWAP2 POP PUSH1 0x20 DUP6 ADD SWAP5 POP PUSH1 0x20 DUP2 ADD SWAP1 POP PUSH3 0x6AB JUMP JUMPDEST DUP7 DUP4 LT ISZERO PUSH3 0x6F2 JUMPI DUP5 DUP10 ADD MLOAD PUSH3 0x6EE PUSH1 0x1F DUP10 AND DUP3 PUSH3 0x5E2 JUMP JUMPDEST DUP4 SSTORE POP JUMPDEST PUSH1 0x1 PUSH1 0x2 DUP9 MUL ADD DUP9 SSTORE POP POP POP JUMPDEST POP POP POP POP POP POP JUMP JUMPDEST PUSH2 0x42B DUP1 PUSH3 0x717 PUSH1 0x0 CODECOPY PUSH1 0x0 RETURN INVALID PUSH1 0x80 PUSH1 0x40 MSTORE CALLVALUE DUP1 ISZERO PUSH2 0x10 JUMPI PUSH1 0x0 DUP1 REVERT JUMPDEST POP PUSH1 0x4 CALLDATASIZE LT PUSH2 0x2B JUMPI PUSH1 0x0 CALLDATALOAD PUSH1 0xE0 SHR DUP1 PUSH4 0x4F8632BA EQ PUSH2 0x30 JUMPI JUMPDEST PUSH1 0x0 DUP1 REVERT JUMPDEST PUSH2 0x38 PUSH2 0x53 JUMP JUMPDEST PUSH1 0x40 MLOAD PUSH2 0x4A SWAP7 SWAP6 SWAP5 SWAP4 SWAP3 SWAP2 SWAP1 PUSH2 0x31F JUMP JUMPDEST PUSH1 0x40 MLOAD DUP1 SWAP2 SUB SWAP1 RETURN JUMPDEST PUSH1 0x0 DUP1 PUSH1 0x0 ADD DUP1 SLOAD PUSH2 0x64 SWAP1 PUSH2 0x3C4 JUMP JUMPDEST DUP1 PUSH1 0x1F ADD PUSH1 0x20 DUP1 SWAP2 DIV MUL PUSH1 0x20 ADD PUSH1 0x40 MLOAD SWAP1 DUP2 ADD PUSH1 0x40 MSTORE DUP1 SWAP3 SWAP2 SWAP1 DUP2 DUP2 MSTORE PUSH1 0x20 ADD DUP3 DUP1 SLOAD PUSH2 0x90 SWAP1 PUSH2 0x3C4 JUMP JUMPDEST DUP1 ISZERO PUSH2 0xDD JUMPI DUP1 PUSH1 0x1F LT PUSH2 0xB2 JUMPI PUSH2 0x100 DUP1 DUP4 SLOAD DIV MUL DUP4 MSTORE SWAP2 PUSH1 0x20 ADD SWAP2 PUSH2 0xDD JUMP JUMPDEST DUP3 ADD SWAP2 SWAP1 PUSH1 0x0 MSTORE PUSH1 0x20 PUSH1 0x0 KECCAK256 SWAP1 JUMPDEST DUP2 SLOAD DUP2 MSTORE SWAP1 PUSH1 0x1 ADD SWAP1 PUSH1 0x20 ADD DUP1 DUP4 GT PUSH2 0xC0 JUMPI DUP3 SWAP1 SUB PUSH1 0x1F AND DUP3 ADD SWAP2 JUMPDEST POP POP POP POP POP SWAP1 DUP1 PUSH1 0x1 ADD DUP1 SLOAD PUSH2 0xF2 SWAP1 PUSH2 0x3C4 JUMP JUMPDEST DUP1 PUSH1 0x1F ADD PUSH1 0x20 DUP1 SWAP2 DIV MUL PUSH1 0x20 ADD PUSH1 0x40 MLOAD SWAP1 DUP2 ADD PUSH1 0x40 MSTORE DUP1 SWAP3 SWAP2 SWAP1 DUP2 DUP2 MSTORE PUSH1 0x20 ADD DUP3 DUP1 SLOAD PUSH2 0x11E SWAP1 PUSH2 0x3C4 JUMP JUMPDEST DUP1 ISZERO PUSH2 0x16B JUMPI DUP1 PUSH1 0x1F LT PUSH2 0x140 JUMPI PUSH2 0x100 DUP1 DUP4 SLOAD DIV MUL DUP4 MSTORE SWAP2 PUSH1 0x20 ADD SWAP2 PUSH2 0x16B JUMP JUMPDEST DUP3 ADD SWAP2 SWAP1 PUSH1 0x0 MSTORE PUSH1 0x20 PUSH1 0x0 KECCAK256 SWAP1 JUMPDEST DUP2 SLOAD DUP2 MSTORE SWAP1 PUSH1 0x1 ADD SWAP1 PUSH1 0x20 ADD DUP1 DUP4 GT PUSH2 0x14E JUMPI DUP3 SWAP1 SUB PUSH1 0x1F AND DUP3 ADD SWAP2 JUMPDEST POP POP POP POP POP SWAP1 DUP1 PUSH1 0x2 ADD SLOAD SWAP1 DUP1 PUSH1 0x3 ADD DUP1 SLOAD PUSH2 0x186 SWAP1 PUSH2 0x3C4 JUMP JUMPDEST DUP1 PUSH1 0x1F ADD PUSH1 0x20 DUP1 SWAP2 DIV MUL PUSH1 0x20 ADD PUSH1 0x40 MLOAD SWAP1 DUP2 ADD PUSH1 0x40 MSTORE DUP1 SWAP3 SWAP2 SWAP1 DUP2 DUP2 MSTORE PUSH1 0x20 ADD DUP3 DUP1 SLOAD PUSH2 0x1B2 SWAP1 PUSH2 0x3C4 JUMP JUMPDEST DUP1 ISZERO PUSH2 0x1FF JUMPI DUP1 PUSH1 0x1F LT PUSH2 0x1D4 JUMPI PUSH2 0x100 DUP1 DUP4 SLOAD DIV MUL DUP4 MSTORE SWAP2 PUSH1 0x20 ADD SWAP2 PUSH2 0x1FF JUMP JUMPDEST DUP3 ADD SWAP2 SWAP1 PUSH1 0x0 MSTORE PUSH1 0x20 PUSH1 0x0 KECCAK256 SWAP1 JUMPDEST DUP2 SLOAD DUP2 MSTORE SWAP1 PUSH1 0x1 ADD SWAP1 PUSH1 0x20 ADD DUP1 DUP4 GT PUSH2 0x1E2 JUMPI DUP3 SWAP1 SUB PUSH1 0x1F AND DUP3 ADD SWAP2 JUMPDEST POP POP POP POP POP SWAP1 DUP1 PUSH1 0x4 ADD SLOAD SWAP1 DUP1 PUSH1 0x5 ADD PUSH1 0x0 SWAP1 SLOAD SWAP1 PUSH2 0x100 EXP SWAP1 DIV PUSH20 0xFFFFFFFFFFFFFFFFFFFFFFFFFFFFFFFFFFFFFFFF AND SWAP1 POP DUP7 JUMP JUMPDEST PUSH1 0x0 DUP2 MLOAD SWAP1 POP SWAP2 SWAP1 POP JUMP JUMPDEST PUSH1 0x0 DUP3 DUP3 MSTORE PUSH1 0x20 DUP3 ADD SWAP1 POP SWAP3 SWAP2 POP POP JUMP JUMPDEST PUSH1 0x0 JUMPDEST DUP4 DUP2 LT ISZERO PUSH2 0x26F JUMPI DUP1 DUP3 ADD MLOAD DUP2 DUP5 ADD MSTORE PUSH1 0x20 DUP2 ADD SWAP1 POP PUSH2 0x254 JUMP JUMPDEST PUSH1 0x0 DUP5 DUP5 ADD MSTORE POP POP POP POP JUMP JUMPDEST PUSH1 0x0 PUSH1 0x1F NOT PUSH1 0x1F DUP4 ADD AND SWAP1 POP SWAP2 SWAP1 POP JUMP JUMPDEST PUSH1 0x0 PUSH2 0x297 DUP3 PUSH2 0x235 JUMP JUMPDEST PUSH2 0x2A1 DUP2 DUP6 PUSH2 0x240 JUMP JUMPDEST SWAP4 POP PUSH2 0x2B1 DUP2 DUP6 PUSH1 0x20 DUP7 ADD PUSH2 0x251 JUMP JUMPDEST PUSH2 0x2BA DUP2 PUSH2 0x27B JUMP JUMPDEST DUP5 ADD SWAP2 POP POP SWAP3 SWAP2 POP POP JUMP JUMPDEST PUSH1 0x0 DUP2 SWAP1 POP SWAP2 SWAP1 POP JUMP JUMPDEST PUSH2 0x2D8 DUP2 PUSH2 0x2C5 JUMP JUMPDEST DUP3 MSTORE POP POP JUMP JUMPDEST PUSH1 0x0 PUSH20 0xFFFFFFFFFFFFFFFFFFFFFFFFFFFFFFFFFFFFFFFF DUP3 AND SWAP1 POP SWAP2 SWAP1 POP JUMP JUMPDEST PUSH1 0x0 PUSH2 0x309 DUP3 PUSH2 0x2DE JUMP JUMPDEST SWAP1 POP SWAP2 SWAP1 POP JUMP JUMPDEST PUSH2 0x319 DUP2 PUSH2 0x2FE JUMP JUMPDEST DUP3 MSTORE POP POP JUMP JUMPDEST PUSH1 0x0 PUSH1 0xC0 DUP3 ADD SWAP1 POP DUP2 DUP2 SUB PUSH1 0x0 DUP4 ADD MSTORE PUSH2 0x339 DUP2 DUP10 PUSH2 0x28C JUMP JUMPDEST SWAP1 POP DUP2 DUP2 SUB PUSH1 0x20 DUP4 ADD MSTORE PUSH2 0x34D DUP2 DUP9 PUSH2 0x28C JUMP JUMPDEST SWAP1 POP PUSH2 0x35C PUSH1 0x40 DUP4 ADD DUP8 PUSH2 0x2CF JUMP JUMPDEST DUP2 DUP2 SUB PUSH1 0x60 DUP4 ADD MSTORE PUSH2 0x36E DUP2 DUP7 PUSH2 0x28C JUMP JUMPDEST SWAP1 POP PUSH2 0x37D PUSH1 0x80 DUP4 ADD DUP6 PUSH2 0x2CF JUMP JUMPDEST PUSH2 0x38A PUSH1 0xA0 DUP4 ADD DUP5 PUSH2 0x310 JUMP JUMPDEST SWAP8 SWAP7 POP POP POP POP POP POP POP JUMP JUMPDEST PUSH32 0x4E487B7100000000000000000000000000000000000000000000000000000000 PUSH1 0x0 MSTORE PUSH1 0x22 PUSH1 0x4 MSTORE PUSH1 0x24 PUSH1 0x0 REVERT JUMPDEST PUSH1 0x0 PUSH1 0x2 DUP3 DIV SWAP1 POP PUSH1 0x1 DUP3 AND DUP1 PUSH2 0x3DC JUMPI PUSH1 0x7F DUP3 AND SWAP2 POP JUMPDEST PUSH1 0x20 DUP3 LT DUP2 SUB PUSH2 0x3EF JUMPI PUSH2 0x3EE PUSH2 0x395 JUMP JUMPDEST JUMPDEST POP SWAP2 SWAP1 POP JUMP INVALID LOG2 PUSH5 0x6970667358 0x22 SLT KECCAK256 0xC5 0xE0 LOG3 0xDE 0xB1 KECCAK256 SUB 0xC1 0xF PUSH25 0xCA2022B062D4E47E8E462C2480FDFA841C21223BEE2A64736F PUSH13 0x63430008120033000000000000 "
				},
				"gasEstimates": {
					"creation": {
						"codeDepositCost": "213400",
						"executionCost": "infinite",
						"totalCost": "infinite"
					},
					"external": {
						"user()": "infinite"
					},
					"internal": {
						"createUser()": "infinite",
						"deleteUser()": "infinite",
						"hasPass()": "infinite",
						"hasReservation()": "infinite",
						"modifyUser()": "infinite"
					}
				},
				"methodIdentifiers": {
					"user()": "4f8632ba"
				}
			},
			"storageLayout": {
				"storage": [
					{
						"astId": 17,
						"contract": "contracts/Client.sol:Client",
						"label": "user",
						"offset": 0,
						"slot": "0",
						"type": "t_struct(User)14_storage"
					}
				],
				"types": {
					"t_address": {
						"encoding": "inplace",
						"label": "address",
						"numberOfBytes": "20"
					},
					"t_string_storage": {
						"encoding": "bytes",
						"label": "string",
						"numberOfBytes": "32"
					},
					"t_struct(User)14_storage": {
						"encoding": "inplace",
						"label": "struct Client.User",
						"members": [
							{
								"astId": 3,
								"contract": "contracts/Client.sol:Client",
								"label": "last_name",
								"offset": 0,
								"slot": "0",
								"type": "t_string_storage"
							},
							{
								"astId": 5,
								"contract": "contracts/Client.sol:Client",
								"label": "home_address",
								"offset": 0,
								"slot": "1",
								"type": "t_string_storage"
							},
							{
								"astId": 7,
								"contract": "contracts/Client.sol:Client",
								"label": "dni",
								"offset": 0,
								"slot": "2",
								"type": "t_uint256"
							},
							{
								"astId": 9,
								"contract": "contracts/Client.sol:Client",
								"label": "name",
								"offset": 0,
								"slot": "3",
								"type": "t_string_storage"
							},
							{
								"astId": 11,
								"contract": "contracts/Client.sol:Client",
								"label": "phone_number",
								"offset": 0,
								"slot": "4",
								"type": "t_uint256"
							},
							{
								"astId": 13,
								"contract": "contracts/Client.sol:Client",
								"label": "owner",
								"offset": 0,
								"slot": "5",
								"type": "t_address"
							}
						],
						"numberOfBytes": "192"
					},
					"t_uint256": {
						"encoding": "inplace",
						"label": "uint256",
						"numberOfBytes": "32"
					}
				}
			},
			"userdoc": {
				"kind": "user",
				"methods": {},
				"version": 1
			}
		}
	}
}